{
	"contracts/tokenA.sol": {
		"TokenA": {
			"abi": [
				{
					"inputs": [
						{
							"internalType": "uint256",
							"name": "_totalSupply",
							"type": "uint256"
						}
					],
					"stateMutability": "nonpayable",
					"type": "constructor"
				},
				{
					"anonymous": false,
					"inputs": [
						{
							"indexed": true,
							"internalType": "address",
							"name": "_owner",
							"type": "address"
						},
						{
							"indexed": true,
							"internalType": "address",
							"name": "_spender",
							"type": "address"
						},
						{
							"indexed": false,
							"internalType": "uint256",
							"name": "_value",
							"type": "uint256"
						}
					],
					"name": "Approval",
					"type": "event"
				},
				{
					"anonymous": false,
					"inputs": [
						{
							"indexed": true,
							"internalType": "address",
							"name": "oldOwner",
							"type": "address"
						},
						{
							"indexed": true,
							"internalType": "address",
							"name": "newOwner",
							"type": "address"
						}
					],
					"name": "OwnerSet",
					"type": "event"
				},
				{
					"anonymous": false,
					"inputs": [
						{
							"indexed": true,
							"internalType": "address",
							"name": "_from",
							"type": "address"
						},
						{
							"indexed": true,
							"internalType": "address",
							"name": "_to",
							"type": "address"
						},
						{
							"indexed": false,
							"internalType": "uint256",
							"name": "_value",
							"type": "uint256"
						}
					],
					"name": "Transfer",
					"type": "event"
				},
				{
					"inputs": [
						{
							"internalType": "address",
							"name": "",
							"type": "address"
						}
					],
					"name": "BalanceOf",
					"outputs": [
						{
							"internalType": "uint256",
							"name": "",
							"type": "uint256"
						}
					],
					"stateMutability": "view",
					"type": "function"
				},
				{
					"inputs": [
						{
							"internalType": "address",
							"name": "",
							"type": "address"
						},
						{
							"internalType": "address",
							"name": "",
							"type": "address"
						}
					],
					"name": "allowance",
					"outputs": [
						{
							"internalType": "uint256",
							"name": "",
							"type": "uint256"
						}
					],
					"stateMutability": "view",
					"type": "function"
				},
				{
					"inputs": [
						{
							"internalType": "address",
							"name": "_spender",
							"type": "address"
						},
						{
							"internalType": "uint256",
							"name": "_value",
							"type": "uint256"
						}
					],
					"name": "approve",
					"outputs": [
						{
							"internalType": "bool",
							"name": "success",
							"type": "bool"
						}
					],
					"stateMutability": "nonpayable",
					"type": "function"
				},
				{
					"inputs": [
						{
							"internalType": "uint256",
							"name": "_value",
							"type": "uint256"
						}
					],
					"name": "burn",
					"outputs": [
						{
							"internalType": "bool",
							"name": "success",
							"type": "bool"
						}
					],
					"stateMutability": "nonpayable",
					"type": "function"
				},
				{
					"inputs": [],
					"name": "decimals",
					"outputs": [
						{
							"internalType": "uint8",
							"name": "",
							"type": "uint8"
						}
					],
					"stateMutability": "view",
					"type": "function"
				},
				{
					"inputs": [
						{
							"internalType": "address",
							"name": "_to",
							"type": "address"
						},
						{
							"internalType": "uint256",
							"name": "_value",
							"type": "uint256"
						}
					],
					"name": "mint",
					"outputs": [
						{
							"internalType": "bool",
							"name": "success",
							"type": "bool"
						}
					],
					"stateMutability": "nonpayable",
					"type": "function"
				},
				{
					"inputs": [],
					"name": "name",
					"outputs": [
						{
							"internalType": "string",
							"name": "",
							"type": "string"
						}
					],
					"stateMutability": "view",
					"type": "function"
				},
				{
					"inputs": [],
					"name": "owner",
					"outputs": [
						{
							"internalType": "address",
							"name": "",
							"type": "address"
						}
					],
					"stateMutability": "view",
					"type": "function"
				},
				{
					"inputs": [],
					"name": "symbol",
					"outputs": [
						{
							"internalType": "string",
							"name": "",
							"type": "string"
						}
					],
					"stateMutability": "view",
					"type": "function"
				},
				{
					"inputs": [],
					"name": "totalSupply",
					"outputs": [
						{
							"internalType": "uint256",
							"name": "",
							"type": "uint256"
						}
					],
					"stateMutability": "view",
					"type": "function"
				},
				{
					"inputs": [
						{
							"internalType": "address",
							"name": "_to",
							"type": "address"
						},
						{
							"internalType": "uint256",
							"name": "_value",
							"type": "uint256"
						}
					],
					"name": "transfer",
					"outputs": [
						{
							"internalType": "bool",
							"name": "success",
							"type": "bool"
						}
					],
					"stateMutability": "nonpayable",
					"type": "function"
				},
				{
					"inputs": [
						{
							"internalType": "address",
							"name": "_from",
							"type": "address"
						},
						{
							"internalType": "address",
							"name": "_to",
							"type": "address"
						},
						{
							"internalType": "uint256",
							"name": "_value",
							"type": "uint256"
						}
					],
					"name": "transferFrom",
					"outputs": [
						{
							"internalType": "bool",
							"name": "success",
							"type": "bool"
						}
					],
					"stateMutability": "nonpayable",
					"type": "function"
				},
				{
					"inputs": [
						{
							"internalType": "address",
							"name": "_newOwner",
							"type": "address"
						}
					],
					"name": "transferOwnership",
					"outputs": [],
					"stateMutability": "nonpayable",
					"type": "function"
				}
			],
			"devdoc": {
				"kind": "dev",
				"methods": {},
				"version": 1
			},
			"evm": {
				"assembly": "    /* \"contracts/tokenA.sol\":74:3284  contract TokenA {\r... */\n  mstore(0x40, 0x80)\n    /* \"contracts/tokenA.sol\":249:251  18 */\n  0x12\n    /* \"contracts/tokenA.sol\":225:251  uint8 public decimals = 18 */\n  0x00\n  exp(0x0100, 0x14)\n  dup2\n  sload\n  dup2\n  0xff\n  mul\n  not\n  and\n  swap1\n  dup4\n  0xff\n  and\n  mul\n  or\n  swap1\n  sstore\n  pop\n    /* \"contracts/tokenA.sol\":956:1122  constructor(uint256 _totalSupply){\r... */\n  callvalue\n  dup1\n  iszero\n  tag_1\n  jumpi\n  0x00\n  dup1\n  revert\ntag_1:\n  pop\n  mload(0x40)\n  sub(codesize, bytecodeSize)\n  dup1\n  bytecodeSize\n  dup4\n  codecopy\n  dup2\n  dup2\n  add\n  0x40\n  mstore\n  dup2\n  add\n  swap1\n  tag_2\n  swap2\n  swap1\n  tag_3\n  jump\t// in\ntag_2:\n    /* \"contracts/tokenA.sol\":1008:1018  msg.sender */\n  caller\n    /* \"contracts/tokenA.sol\":1000:1005  owner */\n  0x00\n  dup1\n    /* \"contracts/tokenA.sol\":1000:1018  owner = msg.sender */\n  0x0100\n  exp\n  dup2\n  sload\n  dup2\n  0xffffffffffffffffffffffffffffffffffffffff\n  mul\n  not\n  and\n  swap1\n  dup4\n  0xffffffffffffffffffffffffffffffffffffffff\n  and\n  mul\n  or\n  swap1\n  sstore\n  pop\n    /* \"contracts/tokenA.sol\":1060:1068  decimals */\n  0x00\n  0x14\n  swap1\n  sload\n  swap1\n  0x0100\n  exp\n  swap1\n  div\n  0xff\n  and\n    /* \"contracts/tokenA.sol\":1056:1058  10 */\n  0x0a\n    /* \"contracts/tokenA.sol\":1056:1068  10**decimals */\n  tag_6\n  swap2\n  swap1\n  tag_7\n  jump\t// in\ntag_6:\n    /* \"contracts/tokenA.sol\":1043:1055  _totalSupply */\n  dup2\n    /* \"contracts/tokenA.sol\":1043:1068  _totalSupply*10**decimals */\n  tag_8\n  swap2\n  swap1\n  tag_9\n  jump\t// in\ntag_8:\n    /* \"contracts/tokenA.sol\":1029:1040  totalSupply */\n  0x01\n    /* \"contracts/tokenA.sol\":1029:1068  totalSupply = _totalSupply*10**decimals */\n  dup2\n  swap1\n  sstore\n  pop\n    /* \"contracts/tokenA.sol\":1103:1114  totalSupply */\n  sload(0x01)\n    /* \"contracts/tokenA.sol\":1079:1088  BalanceOf */\n  0x02\n    /* \"contracts/tokenA.sol\":1079:1100  BalanceOf[msg.sender] */\n  0x00\n    /* \"contracts/tokenA.sol\":1089:1099  msg.sender */\n  caller\n    /* \"contracts/tokenA.sol\":1079:1100  BalanceOf[msg.sender] */\n  0xffffffffffffffffffffffffffffffffffffffff\n  and\n  0xffffffffffffffffffffffffffffffffffffffff\n  and\n  dup2\n  mstore\n  0x20\n  add\n  swap1\n  dup2\n  mstore\n  0x20\n  add\n  0x00\n  keccak256\n    /* \"contracts/tokenA.sol\":1079:1114  BalanceOf[msg.sender] = totalSupply */\n  dup2\n  swap1\n  sstore\n  pop\n    /* \"contracts/tokenA.sol\":956:1122  constructor(uint256 _totalSupply){\r... */\n  pop\n    /* \"contracts/tokenA.sol\":74:3284  contract TokenA {\r... */\n  jump(tag_10)\n    /* \"#utility.yul\":7:150   */\ntag_12:\n    /* \"#utility.yul\":64:69   */\n  0x00\n    /* \"#utility.yul\":95:101   */\n  dup2\n    /* \"#utility.yul\":89:102   */\n  mload\n    /* \"#utility.yul\":80:102   */\n  swap1\n  pop\n    /* \"#utility.yul\":111:144   */\n  tag_14\n    /* \"#utility.yul\":138:143   */\n  dup2\n    /* \"#utility.yul\":111:144   */\n  tag_15\n  jump\t// in\ntag_14:\n    /* \"#utility.yul\":7:150   */\n  swap3\n  swap2\n  pop\n  pop\n  jump\t// out\n    /* \"#utility.yul\":156:507   */\ntag_3:\n    /* \"#utility.yul\":226:232   */\n  0x00\n    /* \"#utility.yul\":275:277   */\n  0x20\n    /* \"#utility.yul\":263:272   */\n  dup3\n    /* \"#utility.yul\":254:261   */\n  dup5\n    /* \"#utility.yul\":250:273   */\n  sub\n    /* \"#utility.yul\":246:278   */\n  slt\n    /* \"#utility.yul\":243:362   */\n  iszero\n  tag_17\n  jumpi\n    /* \"#utility.yul\":281:360   */\n  tag_18\n  tag_19\n  jump\t// in\ntag_18:\n    /* \"#utility.yul\":243:362   */\ntag_17:\n    /* \"#utility.yul\":401:402   */\n  0x00\n    /* \"#utility.yul\":426:490   */\n  tag_20\n    /* \"#utility.yul\":482:489   */\n  dup5\n    /* \"#utility.yul\":473:479   */\n  dup3\n    /* \"#utility.yul\":462:471   */\n  dup6\n    /* \"#utility.yul\":458:480   */\n  add\n    /* \"#utility.yul\":426:490   */\n  tag_12\n  jump\t// in\ntag_20:\n    /* \"#utility.yul\":416:490   */\n  swap2\n  pop\n    /* \"#utility.yul\":372:500   */\n  pop\n    /* \"#utility.yul\":156:507   */\n  swap3\n  swap2\n  pop\n  pop\n  jump\t// out\n    /* \"#utility.yul\":594:1442   */\ntag_23:\n    /* \"#utility.yul\":655:660   */\n  0x00\n    /* \"#utility.yul\":662:666   */\n  dup1\n    /* \"#utility.yul\":686:692   */\n  dup3\n    /* \"#utility.yul\":677:692   */\n  swap2\n  pop\n    /* \"#utility.yul\":710:715   */\n  dup4\n    /* \"#utility.yul\":701:715   */\n  swap1\n  pop\n    /* \"#utility.yul\":724:1436   */\ntag_25:\n    /* \"#utility.yul\":745:746   */\n  0x01\n    /* \"#utility.yul\":735:743   */\n  dup6\n    /* \"#utility.yul\":732:747   */\n  gt\n    /* \"#utility.yul\":724:1436   */\n  iszero\n  tag_27\n  jumpi\n    /* \"#utility.yul\":840:844   */\n  dup1\n    /* \"#utility.yul\":835:838   */\n  dup7\n    /* \"#utility.yul\":831:845   */\n  div\n    /* \"#utility.yul\":825:829   */\n  dup2\n    /* \"#utility.yul\":822:846   */\n  gt\n    /* \"#utility.yul\":819:869   */\n  iszero\n  tag_28\n  jumpi\n    /* \"#utility.yul\":849:867   */\n  tag_29\n  tag_30\n  jump\t// in\ntag_29:\n    /* \"#utility.yul\":819:869   */\ntag_28:\n    /* \"#utility.yul\":899:900   */\n  0x01\n    /* \"#utility.yul\":889:897   */\n  dup6\n    /* \"#utility.yul\":885:901   */\n  and\n    /* \"#utility.yul\":882:1333   */\n  iszero\n  tag_31\n  jumpi\n    /* \"#utility.yul\":1314:1318   */\n  dup1\n    /* \"#utility.yul\":1307:1312   */\n  dup3\n    /* \"#utility.yul\":1303:1319   */\n  mul\n    /* \"#utility.yul\":1294:1319   */\n  swap2\n  pop\n    /* \"#utility.yul\":882:1333   */\ntag_31:\n    /* \"#utility.yul\":1364:1368   */\n  dup1\n    /* \"#utility.yul\":1358:1362   */\n  dup2\n    /* \"#utility.yul\":1354:1369   */\n  mul\n    /* \"#utility.yul\":1346:1369   */\n  swap1\n  pop\n    /* \"#utility.yul\":1394:1426   */\n  tag_32\n    /* \"#utility.yul\":1417:1425   */\n  dup6\n    /* \"#utility.yul\":1394:1426   */\n  tag_33\n  jump\t// in\ntag_32:\n    /* \"#utility.yul\":1382:1426   */\n  swap5\n  pop\n    /* \"#utility.yul\":724:1436   */\n  jump(tag_25)\ntag_27:\n    /* \"#utility.yul\":594:1442   */\n  swap5\n  pop\n  swap5\n  swap3\n  pop\n  pop\n  pop\n  jump\t// out\n    /* \"#utility.yul\":1448:1729   */\ntag_7:\n    /* \"#utility.yul\":1506:1511   */\n  0x00\n    /* \"#utility.yul\":1530:1553   */\n  tag_35\n    /* \"#utility.yul\":1548:1552   */\n  dup3\n    /* \"#utility.yul\":1530:1553   */\n  tag_36\n  jump\t// in\ntag_35:\n    /* \"#utility.yul\":1522:1553   */\n  swap2\n  pop\n    /* \"#utility.yul\":1574:1599   */\n  tag_37\n    /* \"#utility.yul\":1590:1598   */\n  dup4\n    /* \"#utility.yul\":1574:1599   */\n  tag_38\n  jump\t// in\ntag_37:\n    /* \"#utility.yul\":1562:1599   */\n  swap3\n  pop\n    /* \"#utility.yul\":1618:1722   */\n  tag_39\n    /* \"#utility.yul\":1655:1721   */\n  0xffffffffffffffffffffffffffffffffffffffffffffffffffffffffffffffff\n    /* \"#utility.yul\":1645:1653   */\n  dup5\n    /* \"#utility.yul\":1639:1643   */\n  dup5\n    /* \"#utility.yul\":1618:1722   */\n  tag_40\n  jump\t// in\ntag_39:\n    /* \"#utility.yul\":1609:1722   */\n  swap1\n  pop\n    /* \"#utility.yul\":1448:1729   */\n  swap3\n  swap2\n  pop\n  pop\n  jump\t// out\n    /* \"#utility.yul\":1735:2808   */\ntag_40:\n    /* \"#utility.yul\":1789:1794   */\n  0x00\n    /* \"#utility.yul\":1980:1988   */\n  dup3\n    /* \"#utility.yul\":1970:2010   */\n  tag_42\n  jumpi\n    /* \"#utility.yul\":2001:2002   */\n  0x01\n    /* \"#utility.yul\":1992:2002   */\n  swap1\n  pop\n    /* \"#utility.yul\":2003:2008   */\n  jump(tag_41)\n    /* \"#utility.yul\":1970:2010   */\ntag_42:\n    /* \"#utility.yul\":2029:2033   */\n  dup2\n    /* \"#utility.yul\":2019:2055   */\n  tag_43\n  jumpi\n    /* \"#utility.yul\":2046:2047   */\n  0x00\n    /* \"#utility.yul\":2037:2047   */\n  swap1\n  pop\n    /* \"#utility.yul\":2048:2053   */\n  jump(tag_41)\n    /* \"#utility.yul\":2019:2055   */\ntag_43:\n    /* \"#utility.yul\":2115:2119   */\n  dup2\n    /* \"#utility.yul\":2163:2164   */\n  0x01\n    /* \"#utility.yul\":2158:2185   */\n  dup2\n  eq\n  tag_45\n  jumpi\n    /* \"#utility.yul\":2199:2200   */\n  0x02\n    /* \"#utility.yul\":2194:2385   */\n  dup2\n  eq\n  tag_46\n  jumpi\n    /* \"#utility.yul\":2108:2385   */\n  jump(tag_44)\n    /* \"#utility.yul\":2158:2185   */\ntag_45:\n    /* \"#utility.yul\":2176:2177   */\n  0x01\n    /* \"#utility.yul\":2167:2177   */\n  swap2\n  pop\n    /* \"#utility.yul\":2178:2183   */\n  pop\n  jump(tag_41)\n    /* \"#utility.yul\":2194:2385   */\ntag_46:\n    /* \"#utility.yul\":2239:2242   */\n  0xff\n    /* \"#utility.yul\":2229:2237   */\n  dup5\n    /* \"#utility.yul\":2226:2243   */\n  gt\n    /* \"#utility.yul\":2223:2266   */\n  iszero\n  tag_47\n  jumpi\n    /* \"#utility.yul\":2246:2264   */\n  tag_48\n  tag_30\n  jump\t// in\ntag_48:\n    /* \"#utility.yul\":2223:2266   */\ntag_47:\n    /* \"#utility.yul\":2295:2303   */\n  dup4\n    /* \"#utility.yul\":2292:2293   */\n  0x02\n    /* \"#utility.yul\":2288:2304   */\n  exp\n    /* \"#utility.yul\":2279:2304   */\n  swap2\n  pop\n    /* \"#utility.yul\":2330:2333   */\n  dup5\n    /* \"#utility.yul\":2323:2328   */\n  dup3\n    /* \"#utility.yul\":2320:2334   */\n  gt\n    /* \"#utility.yul\":2317:2357   */\n  iszero\n  tag_49\n  jumpi\n    /* \"#utility.yul\":2337:2355   */\n  tag_50\n  tag_30\n  jump\t// in\ntag_50:\n    /* \"#utility.yul\":2317:2357   */\ntag_49:\n    /* \"#utility.yul\":2370:2375   */\n  pop\n  jump(tag_41)\n    /* \"#utility.yul\":2108:2385   */\ntag_44:\n  pop\n    /* \"#utility.yul\":2494:2496   */\n  0x20\n    /* \"#utility.yul\":2484:2492   */\n  dup4\n    /* \"#utility.yul\":2481:2497   */\n  lt\n    /* \"#utility.yul\":2475:2478   */\n  0x0133\n    /* \"#utility.yul\":2469:2473   */\n  dup4\n    /* \"#utility.yul\":2466:2479   */\n  lt\n    /* \"#utility.yul\":2462:2498   */\n  and\n    /* \"#utility.yul\":2444:2446   */\n  0x4e\n    /* \"#utility.yul\":2434:2442   */\n  dup5\n    /* \"#utility.yul\":2431:2447   */\n  lt\n    /* \"#utility.yul\":2426:2428   */\n  0x0b\n    /* \"#utility.yul\":2420:2424   */\n  dup5\n    /* \"#utility.yul\":2417:2429   */\n  lt\n    /* \"#utility.yul\":2413:2448   */\n  and\n    /* \"#utility.yul\":2397:2508   */\n  or\n    /* \"#utility.yul\":2394:2640   */\n  iszero\n  tag_51\n  jumpi\n    /* \"#utility.yul\":2550:2558   */\n  dup3\n    /* \"#utility.yul\":2544:2548   */\n  dup3\n    /* \"#utility.yul\":2540:2559   */\n  exp\n    /* \"#utility.yul\":2531:2559   */\n  swap1\n  pop\n    /* \"#utility.yul\":2585:2588   */\n  dup4\n    /* \"#utility.yul\":2578:2583   */\n  dup2\n    /* \"#utility.yul\":2575:2589   */\n  gt\n    /* \"#utility.yul\":2572:2612   */\n  iszero\n  tag_52\n  jumpi\n    /* \"#utility.yul\":2592:2610   */\n  tag_53\n  tag_30\n  jump\t// in\ntag_53:\n    /* \"#utility.yul\":2572:2612   */\ntag_52:\n    /* \"#utility.yul\":2625:2630   */\n  jump(tag_41)\n    /* \"#utility.yul\":2394:2640   */\ntag_51:\n    /* \"#utility.yul\":2665:2707   */\n  tag_54\n    /* \"#utility.yul\":2703:2706   */\n  dup5\n    /* \"#utility.yul\":2693:2701   */\n  dup5\n    /* \"#utility.yul\":2687:2691   */\n  dup5\n    /* \"#utility.yul\":2684:2685   */\n  0x01\n    /* \"#utility.yul\":2665:2707   */\n  tag_23\n  jump\t// in\ntag_54:\n    /* \"#utility.yul\":2650:2707   */\n  swap3\n  pop\n  swap1\n  pop\n    /* \"#utility.yul\":2739:2743   */\n  dup2\n    /* \"#utility.yul\":2734:2737   */\n  dup5\n    /* \"#utility.yul\":2730:2744   */\n  div\n    /* \"#utility.yul\":2723:2728   */\n  dup2\n    /* \"#utility.yul\":2720:2745   */\n  gt\n    /* \"#utility.yul\":2717:2768   */\n  iszero\n  tag_55\n  jumpi\n    /* \"#utility.yul\":2748:2766   */\n  tag_56\n  tag_30\n  jump\t// in\ntag_56:\n    /* \"#utility.yul\":2717:2768   */\ntag_55:\n    /* \"#utility.yul\":2797:2801   */\n  dup2\n    /* \"#utility.yul\":2790:2795   */\n  dup2\n    /* \"#utility.yul\":2786:2802   */\n  mul\n    /* \"#utility.yul\":2777:2802   */\n  swap1\n  pop\n    /* \"#utility.yul\":1735:2808   */\ntag_41:\n  swap4\n  swap3\n  pop\n  pop\n  pop\n  jump\t// out\n    /* \"#utility.yul\":2814:3162   */\ntag_9:\n    /* \"#utility.yul\":2854:2861   */\n  0x00\n    /* \"#utility.yul\":2877:2897   */\n  tag_58\n    /* \"#utility.yul\":2895:2896   */\n  dup3\n    /* \"#utility.yul\":2877:2897   */\n  tag_36\n  jump\t// in\ntag_58:\n    /* \"#utility.yul\":2872:2897   */\n  swap2\n  pop\n    /* \"#utility.yul\":2911:2931   */\n  tag_59\n    /* \"#utility.yul\":2929:2930   */\n  dup4\n    /* \"#utility.yul\":2911:2931   */\n  tag_36\n  jump\t// in\ntag_59:\n    /* \"#utility.yul\":2906:2931   */\n  swap3\n  pop\n    /* \"#utility.yul\":3099:3100   */\n  dup2\n    /* \"#utility.yul\":3031:3097   */\n  0xffffffffffffffffffffffffffffffffffffffffffffffffffffffffffffffff\n    /* \"#utility.yul\":3027:3101   */\n  div\n    /* \"#utility.yul\":3024:3025   */\n  dup4\n    /* \"#utility.yul\":3021:3102   */\n  gt\n    /* \"#utility.yul\":3016:3017   */\n  dup3\n    /* \"#utility.yul\":3009:3018   */\n  iszero\n    /* \"#utility.yul\":3002:3019   */\n  iszero\n    /* \"#utility.yul\":2998:3103   */\n  and\n    /* \"#utility.yul\":2995:3126   */\n  iszero\n  tag_60\n  jumpi\n    /* \"#utility.yul\":3106:3124   */\n  tag_61\n  tag_30\n  jump\t// in\ntag_61:\n    /* \"#utility.yul\":2995:3126   */\ntag_60:\n    /* \"#utility.yul\":3154:3155   */\n  dup3\n    /* \"#utility.yul\":3151:3152   */\n  dup3\n    /* \"#utility.yul\":3147:3156   */\n  mul\n    /* \"#utility.yul\":3136:3156   */\n  swap1\n  pop\n    /* \"#utility.yul\":2814:3162   */\n  swap3\n  swap2\n  pop\n  pop\n  jump\t// out\n    /* \"#utility.yul\":3168:3245   */\ntag_36:\n    /* \"#utility.yul\":3205:3212   */\n  0x00\n    /* \"#utility.yul\":3234:3239   */\n  dup2\n    /* \"#utility.yul\":3223:3239   */\n  swap1\n  pop\n    /* \"#utility.yul\":3168:3245   */\n  swap2\n  swap1\n  pop\n  jump\t// out\n    /* \"#utility.yul\":3251:3337   */\ntag_38:\n    /* \"#utility.yul\":3286:3293   */\n  0x00\n    /* \"#utility.yul\":3326:3330   */\n  0xff\n    /* \"#utility.yul\":3319:3324   */\n  dup3\n    /* \"#utility.yul\":3315:3331   */\n  and\n    /* \"#utility.yul\":3304:3331   */\n  swap1\n  pop\n    /* \"#utility.yul\":3251:3337   */\n  swap2\n  swap1\n  pop\n  jump\t// out\n    /* \"#utility.yul\":3343:3523   */\ntag_30:\n    /* \"#utility.yul\":3391:3468   */\n  0x4e487b7100000000000000000000000000000000000000000000000000000000\n    /* \"#utility.yul\":3388:3389   */\n  0x00\n    /* \"#utility.yul\":3381:3469   */\n  mstore\n    /* \"#utility.yul\":3488:3492   */\n  0x11\n    /* \"#utility.yul\":3485:3486   */\n  0x04\n    /* \"#utility.yul\":3478:3493   */\n  mstore\n    /* \"#utility.yul\":3512:3516   */\n  0x24\n    /* \"#utility.yul\":3509:3510   */\n  0x00\n    /* \"#utility.yul\":3502:3517   */\n  revert\n    /* \"#utility.yul\":3652:3769   */\ntag_19:\n    /* \"#utility.yul\":3761:3762   */\n  0x00\n    /* \"#utility.yul\":3758:3759   */\n  dup1\n    /* \"#utility.yul\":3751:3763   */\n  revert\n    /* \"#utility.yul\":3775:3877   */\ntag_33:\n    /* \"#utility.yul\":3817:3825   */\n  0x00\n    /* \"#utility.yul\":3864:3869   */\n  dup2\n    /* \"#utility.yul\":3861:3862   */\n  0x01\n    /* \"#utility.yul\":3857:3870   */\n  shr\n    /* \"#utility.yul\":3836:3870   */\n  swap1\n  pop\n    /* \"#utility.yul\":3775:3877   */\n  swap2\n  swap1\n  pop\n  jump\t// out\n    /* \"#utility.yul\":3883:4005   */\ntag_15:\n    /* \"#utility.yul\":3956:3980   */\n  tag_70\n    /* \"#utility.yul\":3974:3979   */\n  dup2\n    /* \"#utility.yul\":3956:3980   */\n  tag_36\n  jump\t// in\ntag_70:\n    /* \"#utility.yul\":3949:3954   */\n  dup2\n    /* \"#utility.yul\":3946:3981   */\n  eq\n    /* \"#utility.yul\":3936:3999   */\n  tag_71\n  jumpi\n    /* \"#utility.yul\":3995:3996   */\n  0x00\n    /* \"#utility.yul\":3992:3993   */\n  dup1\n    /* \"#utility.yul\":3985:3997   */\n  revert\n    /* \"#utility.yul\":3936:3999   */\ntag_71:\n    /* \"#utility.yul\":3883:4005   */\n  pop\n  jump\t// out\n    /* \"contracts/tokenA.sol\":74:3284  contract TokenA {\r... */\ntag_10:\n  dataSize(sub_0)\n  dup1\n  dataOffset(sub_0)\n  0x00\n  codecopy\n  0x00\n  return\nstop\n\nsub_0: assembly {\n        /* \"contracts/tokenA.sol\":74:3284  contract TokenA {\r... */\n      mstore(0x40, 0x80)\n      callvalue\n      dup1\n      iszero\n      tag_1\n      jumpi\n      0x00\n      dup1\n      revert\n    tag_1:\n      pop\n      jumpi(tag_2, lt(calldatasize, 0x04))\n      shr(0xe0, calldataload(0x00))\n      dup1\n      0x42966c68\n      gt\n      tag_16\n      jumpi\n      dup1\n      0xa9059cbb\n      gt\n      tag_17\n      jumpi\n      dup1\n      0xa9059cbb\n      eq\n      tag_12\n      jumpi\n      dup1\n      0xd9967889\n      eq\n      tag_13\n      jumpi\n      dup1\n      0xdd62ed3e\n      eq\n      tag_14\n      jumpi\n      dup1\n      0xf2fde38b\n      eq\n      tag_15\n      jumpi\n      jump(tag_2)\n    tag_17:\n      dup1\n      0x42966c68\n      eq\n      tag_9\n      jumpi\n      dup1\n      0x8da5cb5b\n      eq\n      tag_10\n      jumpi\n      dup1\n      0x95d89b41\n      eq\n      tag_11\n      jumpi\n      jump(tag_2)\n    tag_16:\n      dup1\n      0x06fdde03\n      eq\n      tag_3\n      jumpi\n      dup1\n      0x095ea7b3\n      eq\n      tag_4\n      jumpi\n      dup1\n      0x18160ddd\n      eq\n      tag_5\n      jumpi\n      dup1\n      0x23b872dd\n      eq\n      tag_6\n      jumpi\n      dup1\n      0x313ce567\n      eq\n      tag_7\n      jumpi\n      dup1\n      0x40c10f19\n      eq\n      tag_8\n      jumpi\n    tag_2:\n      0x00\n      dup1\n      revert\n        /* \"contracts/tokenA.sol\":130:175  string public constant name = \"SquirrelToken\" */\n    tag_3:\n      tag_18\n      tag_19\n      jump\t// in\n    tag_18:\n      mload(0x40)\n      tag_20\n      swap2\n      swap1\n      tag_21\n      jump\t// in\n    tag_20:\n      mload(0x40)\n      dup1\n      swap2\n      sub\n      swap1\n      return\n        /* \"contracts/tokenA.sol\":1873:2088  function approve(address _spender, uint256 _value) public returns (bool success){\r... */\n    tag_4:\n      tag_22\n      0x04\n      dup1\n      calldatasize\n      sub\n      dup2\n      add\n      swap1\n      tag_23\n      swap2\n      swap1\n      tag_24\n      jump\t// in\n    tag_23:\n      tag_25\n      jump\t// in\n    tag_22:\n      mload(0x40)\n      tag_26\n      swap2\n      swap1\n      tag_27\n      jump\t// in\n    tag_26:\n      mload(0x40)\n      dup1\n      swap2\n      sub\n      swap1\n      return\n        /* \"contracts/tokenA.sol\":258:284  uint256 public totalSupply */\n    tag_5:\n      tag_28\n      tag_29\n      jump\t// in\n    tag_28:\n      mload(0x40)\n      tag_30\n      swap2\n      swap1\n      tag_31\n      jump\t// in\n    tag_30:\n      mload(0x40)\n      dup1\n      swap2\n      sub\n      swap1\n      return\n        /* \"contracts/tokenA.sol\":2102:2501  function transferFrom(address _from , address _to , uint256 _value)public returns(bool success){\r... */\n    tag_6:\n      tag_32\n      0x04\n      dup1\n      calldatasize\n      sub\n      dup2\n      add\n      swap1\n      tag_33\n      swap2\n      swap1\n      tag_34\n      jump\t// in\n    tag_33:\n      tag_35\n      jump\t// in\n    tag_32:\n      mload(0x40)\n      tag_36\n      swap2\n      swap1\n      tag_27\n      jump\t// in\n    tag_36:\n      mload(0x40)\n      dup1\n      swap2\n      sub\n      swap1\n      return\n        /* \"contracts/tokenA.sol\":225:251  uint8 public decimals = 18 */\n    tag_7:\n      tag_37\n      tag_38\n      jump\t// in\n    tag_37:\n      mload(0x40)\n      tag_39\n      swap2\n      swap1\n      tag_40\n      jump\t// in\n    tag_39:\n      mload(0x40)\n      dup1\n      swap2\n      sub\n      swap1\n      return\n        /* \"contracts/tokenA.sol\":2509:2773  function mint(address _to , uint256 _value)public isOwner returns(bool success){\r... */\n    tag_8:\n      tag_41\n      0x04\n      dup1\n      calldatasize\n      sub\n      dup2\n      add\n      swap1\n      tag_42\n      swap2\n      swap1\n      tag_24\n      jump\t// in\n    tag_42:\n      tag_43\n      jump\t// in\n    tag_41:\n      mload(0x40)\n      tag_44\n      swap2\n      swap1\n      tag_27\n      jump\t// in\n    tag_44:\n      mload(0x40)\n      dup1\n      swap2\n      sub\n      swap1\n      return\n        /* \"contracts/tokenA.sol\":2781:3069  function burn(uint256 _value) public isOwner returns(bool success){\r... */\n    tag_9:\n      tag_45\n      0x04\n      dup1\n      calldatasize\n      sub\n      dup2\n      add\n      swap1\n      tag_46\n      swap2\n      swap1\n      tag_47\n      jump\t// in\n    tag_46:\n      tag_48\n      jump\t// in\n    tag_45:\n      mload(0x40)\n      tag_49\n      swap2\n      swap1\n      tag_27\n      jump\t// in\n    tag_49:\n      mload(0x40)\n      dup1\n      swap2\n      sub\n      swap1\n      return\n        /* \"contracts/tokenA.sol\":103:123  address public owner */\n    tag_10:\n      tag_50\n      tag_51\n      jump\t// in\n    tag_50:\n      mload(0x40)\n      tag_52\n      swap2\n      swap1\n      tag_53\n      jump\t// in\n    tag_52:\n      mload(0x40)\n      dup1\n      swap2\n      sub\n      swap1\n      return\n        /* \"contracts/tokenA.sol\":182:218  string public constant symbol =\"SQT\" */\n    tag_11:\n      tag_54\n      tag_55\n      jump\t// in\n    tag_54:\n      mload(0x40)\n      tag_56\n      swap2\n      swap1\n      tag_21\n      jump\t// in\n    tag_56:\n      mload(0x40)\n      dup1\n      swap2\n      sub\n      swap1\n      return\n        /* \"contracts/tokenA.sol\":1241:1624  function transfer(address _to,uint256 _value)public returns(bool success){\r... */\n    tag_12:\n      tag_57\n      0x04\n      dup1\n      calldatasize\n      sub\n      dup2\n      add\n      swap1\n      tag_58\n      swap2\n      swap1\n      tag_24\n      jump\t// in\n    tag_58:\n      tag_59\n      jump\t// in\n    tag_57:\n      mload(0x40)\n      tag_60\n      swap2\n      swap1\n      tag_27\n      jump\t// in\n    tag_60:\n      mload(0x40)\n      dup1\n      swap2\n      sub\n      swap1\n      return\n        /* \"contracts/tokenA.sol\":335:379  mapping(address => uint256) public BalanceOf */\n    tag_13:\n      tag_61\n      0x04\n      dup1\n      calldatasize\n      sub\n      dup2\n      add\n      swap1\n      tag_62\n      swap2\n      swap1\n      tag_63\n      jump\t// in\n    tag_62:\n      tag_64\n      jump\t// in\n    tag_61:\n      mload(0x40)\n      tag_65\n      swap2\n      swap1\n      tag_31\n      jump\t// in\n    tag_65:\n      mload(0x40)\n      dup1\n      swap2\n      sub\n      swap1\n      return\n        /* \"contracts/tokenA.sol\":443:502  mapping(address=>mapping(address=>uint256))public allowance */\n    tag_14:\n      tag_66\n      0x04\n      dup1\n      calldatasize\n      sub\n      dup2\n      add\n      swap1\n      tag_67\n      swap2\n      swap1\n      tag_68\n      jump\t// in\n    tag_67:\n      tag_69\n      jump\t// in\n    tag_66:\n      mload(0x40)\n      tag_70\n      swap2\n      swap1\n      tag_31\n      jump\t// in\n    tag_70:\n      mload(0x40)\n      dup1\n      swap2\n      sub\n      swap1\n      return\n        /* \"contracts/tokenA.sol\":3135:3279  function transferOwnership(address _newOwner)public isOwner {\r... */\n    tag_15:\n      tag_71\n      0x04\n      dup1\n      calldatasize\n      sub\n      dup2\n      add\n      swap1\n      tag_72\n      swap2\n      swap1\n      tag_63\n      jump\t// in\n    tag_72:\n      tag_73\n      jump\t// in\n    tag_71:\n      stop\n        /* \"contracts/tokenA.sol\":130:175  string public constant name = \"SquirrelToken\" */\n    tag_19:\n      mload(0x40)\n      dup1\n      0x40\n      add\n      0x40\n      mstore\n      dup1\n      0x0d\n      dup2\n      mstore\n      0x20\n      add\n      0x537175697272656c546f6b656e00000000000000000000000000000000000000\n      dup2\n      mstore\n      pop\n      dup2\n      jump\t// out\n        /* \"contracts/tokenA.sol\":1873:2088  function approve(address _spender, uint256 _value) public returns (bool success){\r... */\n    tag_25:\n        /* \"contracts/tokenA.sol\":1940:1952  bool success */\n      0x00\n        /* \"contracts/tokenA.sol\":1996:2002  _value */\n      dup2\n        /* \"contracts/tokenA.sol\":1962:1971  allowance */\n      0x03\n        /* \"contracts/tokenA.sol\":1962:1983  allowance[msg.sender] */\n      0x00\n        /* \"contracts/tokenA.sol\":1972:1982  msg.sender */\n      caller\n        /* \"contracts/tokenA.sol\":1962:1983  allowance[msg.sender] */\n      0xffffffffffffffffffffffffffffffffffffffff\n      and\n      0xffffffffffffffffffffffffffffffffffffffff\n      and\n      dup2\n      mstore\n      0x20\n      add\n      swap1\n      dup2\n      mstore\n      0x20\n      add\n      0x00\n      keccak256\n        /* \"contracts/tokenA.sol\":1962:1993  allowance[msg.sender][_spender] */\n      0x00\n        /* \"contracts/tokenA.sol\":1984:1992  _spender */\n      dup6\n        /* \"contracts/tokenA.sol\":1962:1993  allowance[msg.sender][_spender] */\n      0xffffffffffffffffffffffffffffffffffffffff\n      and\n      0xffffffffffffffffffffffffffffffffffffffff\n      and\n      dup2\n      mstore\n      0x20\n      add\n      swap1\n      dup2\n      mstore\n      0x20\n      add\n      0x00\n      keccak256\n        /* \"contracts/tokenA.sol\":1962:2002  allowance[msg.sender][_spender] = _value */\n      dup2\n      swap1\n      sstore\n      pop\n        /* \"contracts/tokenA.sol\":2040:2048  _spender */\n      dup3\n        /* \"contracts/tokenA.sol\":2018:2058  Approval(msg.sender , _spender , _value) */\n      0xffffffffffffffffffffffffffffffffffffffff\n      and\n        /* \"contracts/tokenA.sol\":2027:2037  msg.sender */\n      caller\n        /* \"contracts/tokenA.sol\":2018:2058  Approval(msg.sender , _spender , _value) */\n      0xffffffffffffffffffffffffffffffffffffffff\n      and\n      0x8c5be1e5ebec7d5bd14f71427d1e84f3dd0314c0f7b2291e5b200ac8c7c3b925\n        /* \"contracts/tokenA.sol\":2051:2057  _value */\n      dup5\n        /* \"contracts/tokenA.sol\":2018:2058  Approval(msg.sender , _spender , _value) */\n      mload(0x40)\n      tag_75\n      swap2\n      swap1\n      tag_31\n      jump\t// in\n    tag_75:\n      mload(0x40)\n      dup1\n      swap2\n      sub\n      swap1\n      log3\n        /* \"contracts/tokenA.sol\":2076:2080  true */\n      0x01\n        /* \"contracts/tokenA.sol\":2069:2080  return true */\n      swap1\n      pop\n        /* \"contracts/tokenA.sol\":1873:2088  function approve(address _spender, uint256 _value) public returns (bool success){\r... */\n      swap3\n      swap2\n      pop\n      pop\n      jump\t// out\n        /* \"contracts/tokenA.sol\":258:284  uint256 public totalSupply */\n    tag_29:\n      sload(0x01)\n      dup2\n      jump\t// out\n        /* \"contracts/tokenA.sol\":2102:2501  function transferFrom(address _from , address _to , uint256 _value)public returns(bool success){\r... */\n    tag_35:\n        /* \"contracts/tokenA.sol\":2184:2196  bool success */\n      0x00\n        /* \"contracts/tokenA.sol\":2235:2241  _value */\n      dup2\n        /* \"contracts/tokenA.sol\":2216:2225  BalanceOf */\n      0x02\n        /* \"contracts/tokenA.sol\":2216:2232  BalanceOf[_from] */\n      0x00\n        /* \"contracts/tokenA.sol\":2226:2231  _from */\n      dup7\n        /* \"contracts/tokenA.sol\":2216:2232  BalanceOf[_from] */\n      0xffffffffffffffffffffffffffffffffffffffff\n      and\n      0xffffffffffffffffffffffffffffffffffffffff\n      and\n      dup2\n      mstore\n      0x20\n      add\n      swap1\n      dup2\n      mstore\n      0x20\n      add\n      0x00\n      keccak256\n      sload\n        /* \"contracts/tokenA.sol\":2216:2241  BalanceOf[_from]>= _value */\n      lt\n      iszero\n        /* \"contracts/tokenA.sol\":2208:2242  require(BalanceOf[_from]>= _value) */\n      tag_77\n      jumpi\n      0x00\n      dup1\n      revert\n    tag_77:\n        /* \"contracts/tokenA.sol\":2292:2298  _value */\n      dup2\n        /* \"contracts/tokenA.sol\":2261:2270  allowance */\n      0x03\n        /* \"contracts/tokenA.sol\":2261:2277  allowance[_from] */\n      0x00\n        /* \"contracts/tokenA.sol\":2271:2276  _from */\n      dup7\n        /* \"contracts/tokenA.sol\":2261:2277  allowance[_from] */\n      0xffffffffffffffffffffffffffffffffffffffff\n      and\n      0xffffffffffffffffffffffffffffffffffffffff\n      and\n      dup2\n      mstore\n      0x20\n      add\n      swap1\n      dup2\n      mstore\n      0x20\n      add\n      0x00\n      keccak256\n        /* \"contracts/tokenA.sol\":2261:2289  allowance[_from][msg.sender] */\n      0x00\n        /* \"contracts/tokenA.sol\":2278:2288  msg.sender */\n      caller\n        /* \"contracts/tokenA.sol\":2261:2289  allowance[_from][msg.sender] */\n      0xffffffffffffffffffffffffffffffffffffffff\n      and\n      0xffffffffffffffffffffffffffffffffffffffff\n      and\n      dup2\n      mstore\n      0x20\n      add\n      swap1\n      dup2\n      mstore\n      0x20\n      add\n      0x00\n      keccak256\n      sload\n        /* \"contracts/tokenA.sol\":2261:2298  allowance[_from][msg.sender]>= _value */\n      lt\n      iszero\n        /* \"contracts/tokenA.sol\":2253:2299  require(allowance[_from][msg.sender]>= _value) */\n      tag_78\n      jumpi\n      0x00\n      dup1\n      revert\n    tag_78:\n        /* \"contracts/tokenA.sol\":2340:2346  _value */\n      dup2\n        /* \"contracts/tokenA.sol\":2310:2319  allowance */\n      0x03\n        /* \"contracts/tokenA.sol\":2310:2326  allowance[_from] */\n      0x00\n        /* \"contracts/tokenA.sol\":2320:2325  _from */\n      dup7\n        /* \"contracts/tokenA.sol\":2310:2326  allowance[_from] */\n      0xffffffffffffffffffffffffffffffffffffffff\n      and\n      0xffffffffffffffffffffffffffffffffffffffff\n      and\n      dup2\n      mstore\n      0x20\n      add\n      swap1\n      dup2\n      mstore\n      0x20\n      add\n      0x00\n      keccak256\n        /* \"contracts/tokenA.sol\":2310:2338  allowance[_from][msg.sender] */\n      0x00\n        /* \"contracts/tokenA.sol\":2327:2337  msg.sender */\n      caller\n        /* \"contracts/tokenA.sol\":2310:2338  allowance[_from][msg.sender] */\n      0xffffffffffffffffffffffffffffffffffffffff\n      and\n      0xffffffffffffffffffffffffffffffffffffffff\n      and\n      dup2\n      mstore\n      0x20\n      add\n      swap1\n      dup2\n      mstore\n      0x20\n      add\n      0x00\n      keccak256\n      0x00\n        /* \"contracts/tokenA.sol\":2310:2346  allowance[_from][msg.sender]-=_value */\n      dup3\n      dup3\n      sload\n      tag_79\n      swap2\n      swap1\n      tag_80\n      jump\t// in\n    tag_79:\n      swap3\n      pop\n      pop\n      dup2\n      swap1\n      sstore\n      pop\n        /* \"contracts/tokenA.sol\":2375:2381  _value */\n      dup2\n        /* \"contracts/tokenA.sol\":2357:2366  BalanceOf */\n      0x02\n        /* \"contracts/tokenA.sol\":2357:2373  BalanceOf[_from] */\n      0x00\n        /* \"contracts/tokenA.sol\":2367:2372  _from */\n      dup7\n        /* \"contracts/tokenA.sol\":2357:2373  BalanceOf[_from] */\n      0xffffffffffffffffffffffffffffffffffffffff\n      and\n      0xffffffffffffffffffffffffffffffffffffffff\n      and\n      dup2\n      mstore\n      0x20\n      add\n      swap1\n      dup2\n      mstore\n      0x20\n      add\n      0x00\n      keccak256\n      0x00\n        /* \"contracts/tokenA.sol\":2357:2381  BalanceOf[_from]-=_value */\n      dup3\n      dup3\n      sload\n      tag_81\n      swap2\n      swap1\n      tag_80\n      jump\t// in\n    tag_81:\n      swap3\n      pop\n      pop\n      dup2\n      swap1\n      sstore\n      pop\n        /* \"contracts/tokenA.sol\":2408:2414  _value */\n      dup2\n        /* \"contracts/tokenA.sol\":2392:2401  BalanceOf */\n      0x02\n        /* \"contracts/tokenA.sol\":2392:2406  BalanceOf[_to] */\n      0x00\n        /* \"contracts/tokenA.sol\":2402:2405  _to */\n      dup6\n        /* \"contracts/tokenA.sol\":2392:2406  BalanceOf[_to] */\n      0xffffffffffffffffffffffffffffffffffffffff\n      and\n      0xffffffffffffffffffffffffffffffffffffffff\n      and\n      dup2\n      mstore\n      0x20\n      add\n      swap1\n      dup2\n      mstore\n      0x20\n      add\n      0x00\n      keccak256\n      0x00\n        /* \"contracts/tokenA.sol\":2392:2414  BalanceOf[_to]+=_value */\n      dup3\n      dup3\n      sload\n      tag_82\n      swap2\n      swap1\n      tag_83\n      jump\t// in\n    tag_82:\n      swap3\n      pop\n      pop\n      dup2\n      swap1\n      sstore\n      pop\n        /* \"contracts/tokenA.sol\":2454:2457  _to */\n      dup3\n        /* \"contracts/tokenA.sol\":2432:2467  Transfer(msg.sender , _to , _value) */\n      0xffffffffffffffffffffffffffffffffffffffff\n      and\n        /* \"contracts/tokenA.sol\":2441:2451  msg.sender */\n      caller\n        /* \"contracts/tokenA.sol\":2432:2467  Transfer(msg.sender , _to , _value) */\n      0xffffffffffffffffffffffffffffffffffffffff\n      and\n      0xddf252ad1be2c89b69c2b068fc378daa952ba7f163c4a11628f55a4df523b3ef\n        /* \"contracts/tokenA.sol\":2460:2466  _value */\n      dup5\n        /* \"contracts/tokenA.sol\":2432:2467  Transfer(msg.sender , _to , _value) */\n      mload(0x40)\n      tag_84\n      swap2\n      swap1\n      tag_31\n      jump\t// in\n    tag_84:\n      mload(0x40)\n      dup1\n      swap2\n      sub\n      swap1\n      log3\n        /* \"contracts/tokenA.sol\":2487:2491  true */\n      0x01\n        /* \"contracts/tokenA.sol\":2480:2491  return true */\n      swap1\n      pop\n        /* \"contracts/tokenA.sol\":2102:2501  function transferFrom(address _from , address _to , uint256 _value)public returns(bool success){\r... */\n      swap4\n      swap3\n      pop\n      pop\n      pop\n      jump\t// out\n        /* \"contracts/tokenA.sol\":225:251  uint8 public decimals = 18 */\n    tag_38:\n      0x00\n      0x14\n      swap1\n      sload\n      swap1\n      0x0100\n      exp\n      swap1\n      div\n      0xff\n      and\n      dup2\n      jump\t// out\n        /* \"contracts/tokenA.sol\":2509:2773  function mint(address _to , uint256 _value)public isOwner returns(bool success){\r... */\n    tag_43:\n        /* \"contracts/tokenA.sol\":2575:2587  bool success */\n      0x00\n        /* \"contracts/tokenA.sol\":1181:1186  owner */\n      dup1\n      0x00\n      swap1\n      sload\n      swap1\n      0x0100\n      exp\n      swap1\n      div\n      0xffffffffffffffffffffffffffffffffffffffff\n      and\n        /* \"contracts/tokenA.sol\":1167:1186  msg.sender == owner */\n      0xffffffffffffffffffffffffffffffffffffffff\n      and\n        /* \"contracts/tokenA.sol\":1167:1177  msg.sender */\n      caller\n        /* \"contracts/tokenA.sol\":1167:1186  msg.sender == owner */\n      0xffffffffffffffffffffffffffffffffffffffff\n      and\n      eq\n        /* \"contracts/tokenA.sol\":1159:1213  require(msg.sender == owner , \"you are not the owner\") */\n      tag_86\n      jumpi\n      mload(0x40)\n      0x08c379a000000000000000000000000000000000000000000000000000000000\n      dup2\n      mstore\n      0x04\n      add\n      tag_87\n      swap1\n      tag_88\n      jump\t// in\n    tag_87:\n      mload(0x40)\n      dup1\n      swap2\n      sub\n      swap1\n      revert\n    tag_86:\n        /* \"contracts/tokenA.sol\":2622:2623  0 */\n      0x00\n        /* \"contracts/tokenA.sol\":2607:2624  _to != address(0) */\n      0xffffffffffffffffffffffffffffffffffffffff\n      and\n        /* \"contracts/tokenA.sol\":2607:2610  _to */\n      dup4\n        /* \"contracts/tokenA.sol\":2607:2624  _to != address(0) */\n      0xffffffffffffffffffffffffffffffffffffffff\n      and\n      eq\n      iszero\n        /* \"contracts/tokenA.sol\":2599:2625  require(_to != address(0)) */\n      tag_90\n      jumpi\n      0x00\n      dup1\n      revert\n    tag_90:\n        /* \"contracts/tokenA.sol\":2649:2655  _value */\n      dup2\n        /* \"contracts/tokenA.sol\":2636:2647  totalSupply */\n      0x01\n      0x00\n        /* \"contracts/tokenA.sol\":2636:2655  totalSupply+=_value */\n      dup3\n      dup3\n      sload\n      tag_91\n      swap2\n      swap1\n      tag_83\n      jump\t// in\n    tag_91:\n      swap3\n      pop\n      pop\n      dup2\n      swap1\n      sstore\n      pop\n        /* \"contracts/tokenA.sol\":2682:2688  _value */\n      dup2\n        /* \"contracts/tokenA.sol\":2666:2675  BalanceOf */\n      0x02\n        /* \"contracts/tokenA.sol\":2666:2680  BalanceOf[_to] */\n      0x00\n        /* \"contracts/tokenA.sol\":2676:2679  _to */\n      dup6\n        /* \"contracts/tokenA.sol\":2666:2680  BalanceOf[_to] */\n      0xffffffffffffffffffffffffffffffffffffffff\n      and\n      0xffffffffffffffffffffffffffffffffffffffff\n      and\n      dup2\n      mstore\n      0x20\n      add\n      swap1\n      dup2\n      mstore\n      0x20\n      add\n      0x00\n      keccak256\n      0x00\n        /* \"contracts/tokenA.sol\":2666:2688  BalanceOf[_to]+=_value */\n      dup3\n      dup3\n      sload\n      tag_92\n      swap2\n      swap1\n      tag_83\n      jump\t// in\n    tag_92:\n      swap3\n      pop\n      pop\n      dup2\n      swap1\n      sstore\n      pop\n        /* \"contracts/tokenA.sol\":2728:2731  _to */\n      dup3\n        /* \"contracts/tokenA.sol\":2706:2741  Transfer(msg.sender , _to , _value) */\n      0xffffffffffffffffffffffffffffffffffffffff\n      and\n        /* \"contracts/tokenA.sol\":2715:2725  msg.sender */\n      caller\n        /* \"contracts/tokenA.sol\":2706:2741  Transfer(msg.sender , _to , _value) */\n      0xffffffffffffffffffffffffffffffffffffffff\n      and\n      0xddf252ad1be2c89b69c2b068fc378daa952ba7f163c4a11628f55a4df523b3ef\n        /* \"contracts/tokenA.sol\":2734:2740  _value */\n      dup5\n        /* \"contracts/tokenA.sol\":2706:2741  Transfer(msg.sender , _to , _value) */\n      mload(0x40)\n      tag_93\n      swap2\n      swap1\n      tag_31\n      jump\t// in\n    tag_93:\n      mload(0x40)\n      dup1\n      swap2\n      sub\n      swap1\n      log3\n        /* \"contracts/tokenA.sol\":2761:2765  true */\n      0x01\n        /* \"contracts/tokenA.sol\":2754:2765  return true */\n      swap1\n      pop\n        /* \"contracts/tokenA.sol\":2509:2773  function mint(address _to , uint256 _value)public isOwner returns(bool success){\r... */\n      swap3\n      swap2\n      pop\n      pop\n      jump\t// out\n        /* \"contracts/tokenA.sol\":2781:3069  function burn(uint256 _value) public isOwner returns(bool success){\r... */\n    tag_48:\n        /* \"contracts/tokenA.sol\":2834:2846  bool success */\n      0x00\n        /* \"contracts/tokenA.sol\":1181:1186  owner */\n      dup1\n      0x00\n      swap1\n      sload\n      swap1\n      0x0100\n      exp\n      swap1\n      div\n      0xffffffffffffffffffffffffffffffffffffffff\n      and\n        /* \"contracts/tokenA.sol\":1167:1186  msg.sender == owner */\n      0xffffffffffffffffffffffffffffffffffffffff\n      and\n        /* \"contracts/tokenA.sol\":1167:1177  msg.sender */\n      caller\n        /* \"contracts/tokenA.sol\":1167:1186  msg.sender == owner */\n      0xffffffffffffffffffffffffffffffffffffffff\n      and\n      eq\n        /* \"contracts/tokenA.sol\":1159:1213  require(msg.sender == owner , \"you are not the owner\") */\n      tag_95\n      jumpi\n      mload(0x40)\n      0x08c379a000000000000000000000000000000000000000000000000000000000\n      dup2\n      mstore\n      0x04\n      add\n      tag_96\n      swap1\n      tag_88\n      jump\t// in\n    tag_96:\n      mload(0x40)\n      dup1\n      swap2\n      sub\n      swap1\n      revert\n    tag_95:\n        /* \"contracts/tokenA.sol\":2877:2882  owner */\n      0x00\n      dup1\n      sload\n      swap1\n      0x0100\n      exp\n      swap1\n      div\n      0xffffffffffffffffffffffffffffffffffffffff\n      and\n        /* \"contracts/tokenA.sol\":2863:2882  msg.sender == owner */\n      0xffffffffffffffffffffffffffffffffffffffff\n      and\n        /* \"contracts/tokenA.sol\":2863:2873  msg.sender */\n      caller\n        /* \"contracts/tokenA.sol\":2863:2882  msg.sender == owner */\n      0xffffffffffffffffffffffffffffffffffffffff\n      and\n      eq\n        /* \"contracts/tokenA.sol\":2855:2913  require(msg.sender == owner , \"You are not allow to burn\") */\n      tag_98\n      jumpi\n      mload(0x40)\n      0x08c379a000000000000000000000000000000000000000000000000000000000\n      dup2\n      mstore\n      0x04\n      add\n      tag_99\n      swap1\n      tag_100\n      jump\t// in\n    tag_99:\n      mload(0x40)\n      dup1\n      swap2\n      sub\n      swap1\n      revert\n    tag_98:\n        /* \"contracts/tokenA.sol\":2934:2940  _value */\n      dup2\n        /* \"contracts/tokenA.sol\":2921:2932  totalSupply */\n      0x01\n      0x00\n        /* \"contracts/tokenA.sol\":2921:2940  totalSupply-=_value */\n      dup3\n      dup3\n      sload\n      tag_101\n      swap2\n      swap1\n      tag_80\n      jump\t// in\n    tag_101:\n      swap3\n      pop\n      pop\n      dup2\n      swap1\n      sstore\n      pop\n        /* \"contracts/tokenA.sol\":2971:2977  _value */\n      dup2\n        /* \"contracts/tokenA.sol\":2948:2957  BalanceOf */\n      0x02\n        /* \"contracts/tokenA.sol\":2948:2969  BalanceOf[msg.sender] */\n      0x00\n        /* \"contracts/tokenA.sol\":2958:2968  msg.sender */\n      caller\n        /* \"contracts/tokenA.sol\":2948:2969  BalanceOf[msg.sender] */\n      0xffffffffffffffffffffffffffffffffffffffff\n      and\n      0xffffffffffffffffffffffffffffffffffffffff\n      and\n      dup2\n      mstore\n      0x20\n      add\n      swap1\n      dup2\n      mstore\n      0x20\n      add\n      0x00\n      keccak256\n      0x00\n        /* \"contracts/tokenA.sol\":2948:2977  BalanceOf[msg.sender]-=_value */\n      dup3\n      dup3\n      sload\n      tag_102\n      swap2\n      swap1\n      tag_80\n      jump\t// in\n    tag_102:\n      swap3\n      pop\n      pop\n      dup2\n      swap1\n      sstore\n      pop\n        /* \"contracts/tokenA.sol\":3021:3022  0 */\n      0x00\n        /* \"contracts/tokenA.sol\":2992:3033  Transfer(msg.sender ,address(0) , _value) */\n      0xffffffffffffffffffffffffffffffffffffffff\n      and\n        /* \"contracts/tokenA.sol\":3001:3011  msg.sender */\n      caller\n        /* \"contracts/tokenA.sol\":2992:3033  Transfer(msg.sender ,address(0) , _value) */\n      0xffffffffffffffffffffffffffffffffffffffff\n      and\n      0xddf252ad1be2c89b69c2b068fc378daa952ba7f163c4a11628f55a4df523b3ef\n        /* \"contracts/tokenA.sol\":3026:3032  _value */\n      dup5\n        /* \"contracts/tokenA.sol\":2992:3033  Transfer(msg.sender ,address(0) , _value) */\n      mload(0x40)\n      tag_103\n      swap2\n      swap1\n      tag_31\n      jump\t// in\n    tag_103:\n      mload(0x40)\n      dup1\n      swap2\n      sub\n      swap1\n      log3\n        /* \"contracts/tokenA.sol\":3050:3054  true */\n      0x01\n        /* \"contracts/tokenA.sol\":3043:3054  return true */\n      swap1\n      pop\n        /* \"contracts/tokenA.sol\":2781:3069  function burn(uint256 _value) public isOwner returns(bool success){\r... */\n      swap2\n      swap1\n      pop\n      jump\t// out\n        /* \"contracts/tokenA.sol\":103:123  address public owner */\n    tag_51:\n      0x00\n      dup1\n      sload\n      swap1\n      0x0100\n      exp\n      swap1\n      div\n      0xffffffffffffffffffffffffffffffffffffffff\n      and\n      dup2\n      jump\t// out\n        /* \"contracts/tokenA.sol\":182:218  string public constant symbol =\"SQT\" */\n    tag_55:\n      mload(0x40)\n      dup1\n      0x40\n      add\n      0x40\n      mstore\n      dup1\n      0x03\n      dup2\n      mstore\n      0x20\n      add\n      0x5351540000000000000000000000000000000000000000000000000000000000\n      dup2\n      mstore\n      pop\n      dup2\n      jump\t// out\n        /* \"contracts/tokenA.sol\":1241:1624  function transfer(address _to,uint256 _value)public returns(bool success){\r... */\n    tag_59:\n        /* \"contracts/tokenA.sol\":1301:1313  bool success */\n      0x00\n        /* \"contracts/tokenA.sol\":1347:1348  0 */\n      dup1\n        /* \"contracts/tokenA.sol\":1333:1349  _to!= address(0) */\n      0xffffffffffffffffffffffffffffffffffffffff\n      and\n        /* \"contracts/tokenA.sol\":1333:1336  _to */\n      dup4\n        /* \"contracts/tokenA.sol\":1333:1349  _to!= address(0) */\n      0xffffffffffffffffffffffffffffffffffffffff\n      and\n      eq\n      iszero\n        /* \"contracts/tokenA.sol\":1325:1376  require(_to!= address(0),\"Please enter an address\") */\n      tag_105\n      jumpi\n      mload(0x40)\n      0x08c379a000000000000000000000000000000000000000000000000000000000\n      dup2\n      mstore\n      0x04\n      add\n      tag_106\n      swap1\n      tag_107\n      jump\t// in\n    tag_106:\n      mload(0x40)\n      dup1\n      swap2\n      sub\n      swap1\n      revert\n    tag_105:\n        /* \"contracts/tokenA.sol\":1419:1425  _value */\n      dup2\n        /* \"contracts/tokenA.sol\":1395:1404  BalanceOf */\n      0x02\n        /* \"contracts/tokenA.sol\":1395:1416  BalanceOf[msg.sender] */\n      0x00\n        /* \"contracts/tokenA.sol\":1405:1415  msg.sender */\n      caller\n        /* \"contracts/tokenA.sol\":1395:1416  BalanceOf[msg.sender] */\n      0xffffffffffffffffffffffffffffffffffffffff\n      and\n      0xffffffffffffffffffffffffffffffffffffffff\n      and\n      dup2\n      mstore\n      0x20\n      add\n      swap1\n      dup2\n      mstore\n      0x20\n      add\n      0x00\n      keccak256\n      sload\n        /* \"contracts/tokenA.sol\":1395:1425  BalanceOf[msg.sender]>= _value */\n      lt\n      iszero\n        /* \"contracts/tokenA.sol\":1387:1460  require(BalanceOf[msg.sender]>= _value ,\"Not enough SQT in your balance\") */\n      tag_108\n      jumpi\n      mload(0x40)\n      0x08c379a000000000000000000000000000000000000000000000000000000000\n      dup2\n      mstore\n      0x04\n      add\n      tag_109\n      swap1\n      tag_110\n      jump\t// in\n    tag_109:\n      mload(0x40)\n      dup1\n      swap2\n      sub\n      swap1\n      revert\n    tag_108:\n        /* \"contracts/tokenA.sol\":1494:1500  _value */\n      dup2\n        /* \"contracts/tokenA.sol\":1471:1480  BalanceOf */\n      0x02\n        /* \"contracts/tokenA.sol\":1471:1492  BalanceOf[msg.sender] */\n      0x00\n        /* \"contracts/tokenA.sol\":1481:1491  msg.sender */\n      caller\n        /* \"contracts/tokenA.sol\":1471:1492  BalanceOf[msg.sender] */\n      0xffffffffffffffffffffffffffffffffffffffff\n      and\n      0xffffffffffffffffffffffffffffffffffffffff\n      and\n      dup2\n      mstore\n      0x20\n      add\n      swap1\n      dup2\n      mstore\n      0x20\n      add\n      0x00\n      keccak256\n      0x00\n        /* \"contracts/tokenA.sol\":1471:1500  BalanceOf[msg.sender]-=_value */\n      dup3\n      dup3\n      sload\n      tag_111\n      swap2\n      swap1\n      tag_80\n      jump\t// in\n    tag_111:\n      swap3\n      pop\n      pop\n      dup2\n      swap1\n      sstore\n      pop\n        /* \"contracts/tokenA.sol\":1527:1533  _value */\n      dup2\n        /* \"contracts/tokenA.sol\":1511:1520  BalanceOf */\n      0x02\n        /* \"contracts/tokenA.sol\":1511:1525  BalanceOf[_to] */\n      0x00\n        /* \"contracts/tokenA.sol\":1521:1524  _to */\n      dup6\n        /* \"contracts/tokenA.sol\":1511:1525  BalanceOf[_to] */\n      0xffffffffffffffffffffffffffffffffffffffff\n      and\n      0xffffffffffffffffffffffffffffffffffffffff\n      and\n      dup2\n      mstore\n      0x20\n      add\n      swap1\n      dup2\n      mstore\n      0x20\n      add\n      0x00\n      keccak256\n      0x00\n        /* \"contracts/tokenA.sol\":1511:1533  BalanceOf[_to]+=_value */\n      dup3\n      dup3\n      sload\n      tag_112\n      swap2\n      swap1\n      tag_83\n      jump\t// in\n    tag_112:\n      swap3\n      pop\n      pop\n      dup2\n      swap1\n      sstore\n      pop\n        /* \"contracts/tokenA.sol\":1571:1574  _to */\n      dup3\n        /* \"contracts/tokenA.sol\":1549:1584  Transfer(msg.sender , _to , _value) */\n      0xffffffffffffffffffffffffffffffffffffffff\n      and\n        /* \"contracts/tokenA.sol\":1558:1568  msg.sender */\n      caller\n        /* \"contracts/tokenA.sol\":1549:1584  Transfer(msg.sender , _to , _value) */\n      0xffffffffffffffffffffffffffffffffffffffff\n      and\n      0xddf252ad1be2c89b69c2b068fc378daa952ba7f163c4a11628f55a4df523b3ef\n        /* \"contracts/tokenA.sol\":1577:1583  _value */\n      dup5\n        /* \"contracts/tokenA.sol\":1549:1584  Transfer(msg.sender , _to , _value) */\n      mload(0x40)\n      tag_113\n      swap2\n      swap1\n      tag_31\n      jump\t// in\n    tag_113:\n      mload(0x40)\n      dup1\n      swap2\n      sub\n      swap1\n      log3\n        /* \"contracts/tokenA.sol\":1612:1616  true */\n      0x01\n        /* \"contracts/tokenA.sol\":1605:1616  return true */\n      swap1\n      pop\n        /* \"contracts/tokenA.sol\":1241:1624  function transfer(address _to,uint256 _value)public returns(bool success){\r... */\n      swap3\n      swap2\n      pop\n      pop\n      jump\t// out\n        /* \"contracts/tokenA.sol\":335:379  mapping(address => uint256) public BalanceOf */\n    tag_64:\n      mstore(0x20, 0x02)\n      dup1\n      0x00\n      mstore\n      keccak256(0x00, 0x40)\n      0x00\n      swap2\n      pop\n      swap1\n      pop\n      sload\n      dup2\n      jump\t// out\n        /* \"contracts/tokenA.sol\":443:502  mapping(address=>mapping(address=>uint256))public allowance */\n    tag_69:\n      mstore(0x20, 0x03)\n      dup2\n      0x00\n      mstore\n      mstore(0x20, keccak256(0x00, 0x40))\n      dup1\n      0x00\n      mstore\n      keccak256(0x00, 0x40)\n      0x00\n      swap2\n      pop\n      swap2\n      pop\n      pop\n      sload\n      dup2\n      jump\t// out\n        /* \"contracts/tokenA.sol\":3135:3279  function transferOwnership(address _newOwner)public isOwner {\r... */\n    tag_73:\n        /* \"contracts/tokenA.sol\":1181:1186  owner */\n      0x00\n      dup1\n      sload\n      swap1\n      0x0100\n      exp\n      swap1\n      div\n      0xffffffffffffffffffffffffffffffffffffffff\n      and\n        /* \"contracts/tokenA.sol\":1167:1186  msg.sender == owner */\n      0xffffffffffffffffffffffffffffffffffffffff\n      and\n        /* \"contracts/tokenA.sol\":1167:1177  msg.sender */\n      caller\n        /* \"contracts/tokenA.sol\":1167:1186  msg.sender == owner */\n      0xffffffffffffffffffffffffffffffffffffffff\n      and\n      eq\n        /* \"contracts/tokenA.sol\":1159:1213  require(msg.sender == owner , \"you are not the owner\") */\n      tag_115\n      jumpi\n      mload(0x40)\n      0x08c379a000000000000000000000000000000000000000000000000000000000\n      dup2\n      mstore\n      0x04\n      add\n      tag_116\n      swap1\n      tag_88\n      jump\t// in\n    tag_116:\n      mload(0x40)\n      dup1\n      swap2\n      sub\n      swap1\n      revert\n    tag_115:\n        /* \"contracts/tokenA.sol\":3214:3223  _newOwner */\n      dup1\n        /* \"contracts/tokenA.sol\":3206:3211  owner */\n      0x00\n      dup1\n        /* \"contracts/tokenA.sol\":3206:3223  owner = _newOwner */\n      0x0100\n      exp\n      dup2\n      sload\n      dup2\n      0xffffffffffffffffffffffffffffffffffffffff\n      mul\n      not\n      and\n      swap1\n      dup4\n      0xffffffffffffffffffffffffffffffffffffffff\n      and\n      mul\n      or\n      swap1\n      sstore\n      pop\n        /* \"contracts/tokenA.sol\":3261:3270  _newOwner */\n      dup1\n        /* \"contracts/tokenA.sol\":3239:3271  OwnerSet(msg.sender , _newOwner) */\n      0xffffffffffffffffffffffffffffffffffffffff\n      and\n        /* \"contracts/tokenA.sol\":3248:3258  msg.sender */\n      caller\n        /* \"contracts/tokenA.sol\":3239:3271  OwnerSet(msg.sender , _newOwner) */\n      0xffffffffffffffffffffffffffffffffffffffff\n      and\n      0x342827c97908e5e2f71151c08502a66d44b6f758e3ac2f1de95f02eb95f0a735\n      mload(0x40)\n      mload(0x40)\n      dup1\n      swap2\n      sub\n      swap1\n      log3\n        /* \"contracts/tokenA.sol\":3135:3279  function transferOwnership(address _newOwner)public isOwner {\r... */\n      pop\n      jump\t// out\n        /* \"#utility.yul\":7:146   */\n    tag_119:\n        /* \"#utility.yul\":53:58   */\n      0x00\n        /* \"#utility.yul\":91:97   */\n      dup2\n        /* \"#utility.yul\":78:98   */\n      calldataload\n        /* \"#utility.yul\":69:98   */\n      swap1\n      pop\n        /* \"#utility.yul\":107:140   */\n      tag_121\n        /* \"#utility.yul\":134:139   */\n      dup2\n        /* \"#utility.yul\":107:140   */\n      tag_122\n      jump\t// in\n    tag_121:\n        /* \"#utility.yul\":7:146   */\n      swap3\n      swap2\n      pop\n      pop\n      jump\t// out\n        /* \"#utility.yul\":152:291   */\n    tag_123:\n        /* \"#utility.yul\":198:203   */\n      0x00\n        /* \"#utility.yul\":236:242   */\n      dup2\n        /* \"#utility.yul\":223:243   */\n      calldataload\n        /* \"#utility.yul\":214:243   */\n      swap1\n      pop\n        /* \"#utility.yul\":252:285   */\n      tag_125\n        /* \"#utility.yul\":279:284   */\n      dup2\n        /* \"#utility.yul\":252:285   */\n      tag_126\n      jump\t// in\n    tag_125:\n        /* \"#utility.yul\":152:291   */\n      swap3\n      swap2\n      pop\n      pop\n      jump\t// out\n        /* \"#utility.yul\":297:626   */\n    tag_63:\n        /* \"#utility.yul\":356:362   */\n      0x00\n        /* \"#utility.yul\":405:407   */\n      0x20\n        /* \"#utility.yul\":393:402   */\n      dup3\n        /* \"#utility.yul\":384:391   */\n      dup5\n        /* \"#utility.yul\":380:403   */\n      sub\n        /* \"#utility.yul\":376:408   */\n      slt\n        /* \"#utility.yul\":373:492   */\n      iszero\n      tag_128\n      jumpi\n        /* \"#utility.yul\":411:490   */\n      tag_129\n      tag_130\n      jump\t// in\n    tag_129:\n        /* \"#utility.yul\":373:492   */\n    tag_128:\n        /* \"#utility.yul\":531:532   */\n      0x00\n        /* \"#utility.yul\":556:609   */\n      tag_131\n        /* \"#utility.yul\":601:608   */\n      dup5\n        /* \"#utility.yul\":592:598   */\n      dup3\n        /* \"#utility.yul\":581:590   */\n      dup6\n        /* \"#utility.yul\":577:599   */\n      add\n        /* \"#utility.yul\":556:609   */\n      tag_119\n      jump\t// in\n    tag_131:\n        /* \"#utility.yul\":546:609   */\n      swap2\n      pop\n        /* \"#utility.yul\":502:619   */\n      pop\n        /* \"#utility.yul\":297:626   */\n      swap3\n      swap2\n      pop\n      pop\n      jump\t// out\n        /* \"#utility.yul\":632:1106   */\n    tag_68:\n        /* \"#utility.yul\":700:706   */\n      0x00\n        /* \"#utility.yul\":708:714   */\n      dup1\n        /* \"#utility.yul\":757:759   */\n      0x40\n        /* \"#utility.yul\":745:754   */\n      dup4\n        /* \"#utility.yul\":736:743   */\n      dup6\n        /* \"#utility.yul\":732:755   */\n      sub\n        /* \"#utility.yul\":728:760   */\n      slt\n        /* \"#utility.yul\":725:844   */\n      iszero\n      tag_133\n      jumpi\n        /* \"#utility.yul\":763:842   */\n      tag_134\n      tag_130\n      jump\t// in\n    tag_134:\n        /* \"#utility.yul\":725:844   */\n    tag_133:\n        /* \"#utility.yul\":883:884   */\n      0x00\n        /* \"#utility.yul\":908:961   */\n      tag_135\n        /* \"#utility.yul\":953:960   */\n      dup6\n        /* \"#utility.yul\":944:950   */\n      dup3\n        /* \"#utility.yul\":933:942   */\n      dup7\n        /* \"#utility.yul\":929:951   */\n      add\n        /* \"#utility.yul\":908:961   */\n      tag_119\n      jump\t// in\n    tag_135:\n        /* \"#utility.yul\":898:961   */\n      swap3\n      pop\n        /* \"#utility.yul\":854:971   */\n      pop\n        /* \"#utility.yul\":1010:1012   */\n      0x20\n        /* \"#utility.yul\":1036:1089   */\n      tag_136\n        /* \"#utility.yul\":1081:1088   */\n      dup6\n        /* \"#utility.yul\":1072:1078   */\n      dup3\n        /* \"#utility.yul\":1061:1070   */\n      dup7\n        /* \"#utility.yul\":1057:1079   */\n      add\n        /* \"#utility.yul\":1036:1089   */\n      tag_119\n      jump\t// in\n    tag_136:\n        /* \"#utility.yul\":1026:1089   */\n      swap2\n      pop\n        /* \"#utility.yul\":981:1099   */\n      pop\n        /* \"#utility.yul\":632:1106   */\n      swap3\n      pop\n      swap3\n      swap1\n      pop\n      jump\t// out\n        /* \"#utility.yul\":1112:1731   */\n    tag_34:\n        /* \"#utility.yul\":1189:1195   */\n      0x00\n        /* \"#utility.yul\":1197:1203   */\n      dup1\n        /* \"#utility.yul\":1205:1211   */\n      0x00\n        /* \"#utility.yul\":1254:1256   */\n      0x60\n        /* \"#utility.yul\":1242:1251   */\n      dup5\n        /* \"#utility.yul\":1233:1240   */\n      dup7\n        /* \"#utility.yul\":1229:1252   */\n      sub\n        /* \"#utility.yul\":1225:1257   */\n      slt\n        /* \"#utility.yul\":1222:1341   */\n      iszero\n      tag_138\n      jumpi\n        /* \"#utility.yul\":1260:1339   */\n      tag_139\n      tag_130\n      jump\t// in\n    tag_139:\n        /* \"#utility.yul\":1222:1341   */\n    tag_138:\n        /* \"#utility.yul\":1380:1381   */\n      0x00\n        /* \"#utility.yul\":1405:1458   */\n      tag_140\n        /* \"#utility.yul\":1450:1457   */\n      dup7\n        /* \"#utility.yul\":1441:1447   */\n      dup3\n        /* \"#utility.yul\":1430:1439   */\n      dup8\n        /* \"#utility.yul\":1426:1448   */\n      add\n        /* \"#utility.yul\":1405:1458   */\n      tag_119\n      jump\t// in\n    tag_140:\n        /* \"#utility.yul\":1395:1458   */\n      swap4\n      pop\n        /* \"#utility.yul\":1351:1468   */\n      pop\n        /* \"#utility.yul\":1507:1509   */\n      0x20\n        /* \"#utility.yul\":1533:1586   */\n      tag_141\n        /* \"#utility.yul\":1578:1585   */\n      dup7\n        /* \"#utility.yul\":1569:1575   */\n      dup3\n        /* \"#utility.yul\":1558:1567   */\n      dup8\n        /* \"#utility.yul\":1554:1576   */\n      add\n        /* \"#utility.yul\":1533:1586   */\n      tag_119\n      jump\t// in\n    tag_141:\n        /* \"#utility.yul\":1523:1586   */\n      swap3\n      pop\n        /* \"#utility.yul\":1478:1596   */\n      pop\n        /* \"#utility.yul\":1635:1637   */\n      0x40\n        /* \"#utility.yul\":1661:1714   */\n      tag_142\n        /* \"#utility.yul\":1706:1713   */\n      dup7\n        /* \"#utility.yul\":1697:1703   */\n      dup3\n        /* \"#utility.yul\":1686:1695   */\n      dup8\n        /* \"#utility.yul\":1682:1704   */\n      add\n        /* \"#utility.yul\":1661:1714   */\n      tag_123\n      jump\t// in\n    tag_142:\n        /* \"#utility.yul\":1651:1714   */\n      swap2\n      pop\n        /* \"#utility.yul\":1606:1724   */\n      pop\n        /* \"#utility.yul\":1112:1731   */\n      swap3\n      pop\n      swap3\n      pop\n      swap3\n      jump\t// out\n        /* \"#utility.yul\":1737:2211   */\n    tag_24:\n        /* \"#utility.yul\":1805:1811   */\n      0x00\n        /* \"#utility.yul\":1813:1819   */\n      dup1\n        /* \"#utility.yul\":1862:1864   */\n      0x40\n        /* \"#utility.yul\":1850:1859   */\n      dup4\n        /* \"#utility.yul\":1841:1848   */\n      dup6\n        /* \"#utility.yul\":1837:1860   */\n      sub\n        /* \"#utility.yul\":1833:1865   */\n      slt\n        /* \"#utility.yul\":1830:1949   */\n      iszero\n      tag_144\n      jumpi\n        /* \"#utility.yul\":1868:1947   */\n      tag_145\n      tag_130\n      jump\t// in\n    tag_145:\n        /* \"#utility.yul\":1830:1949   */\n    tag_144:\n        /* \"#utility.yul\":1988:1989   */\n      0x00\n        /* \"#utility.yul\":2013:2066   */\n      tag_146\n        /* \"#utility.yul\":2058:2065   */\n      dup6\n        /* \"#utility.yul\":2049:2055   */\n      dup3\n        /* \"#utility.yul\":2038:2047   */\n      dup7\n        /* \"#utility.yul\":2034:2056   */\n      add\n        /* \"#utility.yul\":2013:2066   */\n      tag_119\n      jump\t// in\n    tag_146:\n        /* \"#utility.yul\":2003:2066   */\n      swap3\n      pop\n        /* \"#utility.yul\":1959:2076   */\n      pop\n        /* \"#utility.yul\":2115:2117   */\n      0x20\n        /* \"#utility.yul\":2141:2194   */\n      tag_147\n        /* \"#utility.yul\":2186:2193   */\n      dup6\n        /* \"#utility.yul\":2177:2183   */\n      dup3\n        /* \"#utility.yul\":2166:2175   */\n      dup7\n        /* \"#utility.yul\":2162:2184   */\n      add\n        /* \"#utility.yul\":2141:2194   */\n      tag_123\n      jump\t// in\n    tag_147:\n        /* \"#utility.yul\":2131:2194   */\n      swap2\n      pop\n        /* \"#utility.yul\":2086:2204   */\n      pop\n        /* \"#utility.yul\":1737:2211   */\n      swap3\n      pop\n      swap3\n      swap1\n      pop\n      jump\t// out\n        /* \"#utility.yul\":2217:2546   */\n    tag_47:\n        /* \"#utility.yul\":2276:2282   */\n      0x00\n        /* \"#utility.yul\":2325:2327   */\n      0x20\n        /* \"#utility.yul\":2313:2322   */\n      dup3\n        /* \"#utility.yul\":2304:2311   */\n      dup5\n        /* \"#utility.yul\":2300:2323   */\n      sub\n        /* \"#utility.yul\":2296:2328   */\n      slt\n        /* \"#utility.yul\":2293:2412   */\n      iszero\n      tag_149\n      jumpi\n        /* \"#utility.yul\":2331:2410   */\n      tag_150\n      tag_130\n      jump\t// in\n    tag_150:\n        /* \"#utility.yul\":2293:2412   */\n    tag_149:\n        /* \"#utility.yul\":2451:2452   */\n      0x00\n        /* \"#utility.yul\":2476:2529   */\n      tag_151\n        /* \"#utility.yul\":2521:2528   */\n      dup5\n        /* \"#utility.yul\":2512:2518   */\n      dup3\n        /* \"#utility.yul\":2501:2510   */\n      dup6\n        /* \"#utility.yul\":2497:2519   */\n      add\n        /* \"#utility.yul\":2476:2529   */\n      tag_123\n      jump\t// in\n    tag_151:\n        /* \"#utility.yul\":2466:2529   */\n      swap2\n      pop\n        /* \"#utility.yul\":2422:2539   */\n      pop\n        /* \"#utility.yul\":2217:2546   */\n      swap3\n      swap2\n      pop\n      pop\n      jump\t// out\n        /* \"#utility.yul\":2552:2670   */\n    tag_152:\n        /* \"#utility.yul\":2639:2663   */\n      tag_154\n        /* \"#utility.yul\":2657:2662   */\n      dup2\n        /* \"#utility.yul\":2639:2663   */\n      tag_155\n      jump\t// in\n    tag_154:\n        /* \"#utility.yul\":2634:2637   */\n      dup3\n        /* \"#utility.yul\":2627:2664   */\n      mstore\n        /* \"#utility.yul\":2552:2670   */\n      pop\n      pop\n      jump\t// out\n        /* \"#utility.yul\":2676:2785   */\n    tag_156:\n        /* \"#utility.yul\":2757:2778   */\n      tag_158\n        /* \"#utility.yul\":2772:2777   */\n      dup2\n        /* \"#utility.yul\":2757:2778   */\n      tag_159\n      jump\t// in\n    tag_158:\n        /* \"#utility.yul\":2752:2755   */\n      dup3\n        /* \"#utility.yul\":2745:2779   */\n      mstore\n        /* \"#utility.yul\":2676:2785   */\n      pop\n      pop\n      jump\t// out\n        /* \"#utility.yul\":2791:3155   */\n    tag_160:\n        /* \"#utility.yul\":2879:2882   */\n      0x00\n        /* \"#utility.yul\":2907:2946   */\n      tag_162\n        /* \"#utility.yul\":2940:2945   */\n      dup3\n        /* \"#utility.yul\":2907:2946   */\n      tag_163\n      jump\t// in\n    tag_162:\n        /* \"#utility.yul\":2962:3033   */\n      tag_164\n        /* \"#utility.yul\":3026:3032   */\n      dup2\n        /* \"#utility.yul\":3021:3024   */\n      dup6\n        /* \"#utility.yul\":2962:3033   */\n      tag_165\n      jump\t// in\n    tag_164:\n        /* \"#utility.yul\":2955:3033   */\n      swap4\n      pop\n        /* \"#utility.yul\":3042:3094   */\n      tag_166\n        /* \"#utility.yul\":3087:3093   */\n      dup2\n        /* \"#utility.yul\":3082:3085   */\n      dup6\n        /* \"#utility.yul\":3075:3079   */\n      0x20\n        /* \"#utility.yul\":3068:3073   */\n      dup7\n        /* \"#utility.yul\":3064:3080   */\n      add\n        /* \"#utility.yul\":3042:3094   */\n      tag_167\n      jump\t// in\n    tag_166:\n        /* \"#utility.yul\":3119:3148   */\n      tag_168\n        /* \"#utility.yul\":3141:3147   */\n      dup2\n        /* \"#utility.yul\":3119:3148   */\n      tag_169\n      jump\t// in\n    tag_168:\n        /* \"#utility.yul\":3114:3117   */\n      dup5\n        /* \"#utility.yul\":3110:3149   */\n      add\n        /* \"#utility.yul\":3103:3149   */\n      swap2\n      pop\n        /* \"#utility.yul\":2883:3155   */\n      pop\n        /* \"#utility.yul\":2791:3155   */\n      swap3\n      swap2\n      pop\n      pop\n      jump\t// out\n        /* \"#utility.yul\":3161:3527   */\n    tag_170:\n        /* \"#utility.yul\":3303:3306   */\n      0x00\n        /* \"#utility.yul\":3324:3391   */\n      tag_172\n        /* \"#utility.yul\":3388:3390   */\n      0x19\n        /* \"#utility.yul\":3383:3386   */\n      dup4\n        /* \"#utility.yul\":3324:3391   */\n      tag_165\n      jump\t// in\n    tag_172:\n        /* \"#utility.yul\":3317:3391   */\n      swap2\n      pop\n        /* \"#utility.yul\":3400:3493   */\n      tag_173\n        /* \"#utility.yul\":3489:3492   */\n      dup3\n        /* \"#utility.yul\":3400:3493   */\n      tag_174\n      jump\t// in\n    tag_173:\n        /* \"#utility.yul\":3518:3520   */\n      0x20\n        /* \"#utility.yul\":3513:3516   */\n      dup3\n        /* \"#utility.yul\":3509:3521   */\n      add\n        /* \"#utility.yul\":3502:3521   */\n      swap1\n      pop\n        /* \"#utility.yul\":3161:3527   */\n      swap2\n      swap1\n      pop\n      jump\t// out\n        /* \"#utility.yul\":3533:3899   */\n    tag_175:\n        /* \"#utility.yul\":3675:3678   */\n      0x00\n        /* \"#utility.yul\":3696:3763   */\n      tag_177\n        /* \"#utility.yul\":3760:3762   */\n      0x1e\n        /* \"#utility.yul\":3755:3758   */\n      dup4\n        /* \"#utility.yul\":3696:3763   */\n      tag_165\n      jump\t// in\n    tag_177:\n        /* \"#utility.yul\":3689:3763   */\n      swap2\n      pop\n        /* \"#utility.yul\":3772:3865   */\n      tag_178\n        /* \"#utility.yul\":3861:3864   */\n      dup3\n        /* \"#utility.yul\":3772:3865   */\n      tag_179\n      jump\t// in\n    tag_178:\n        /* \"#utility.yul\":3890:3892   */\n      0x20\n        /* \"#utility.yul\":3885:3888   */\n      dup3\n        /* \"#utility.yul\":3881:3893   */\n      add\n        /* \"#utility.yul\":3874:3893   */\n      swap1\n      pop\n        /* \"#utility.yul\":3533:3899   */\n      swap2\n      swap1\n      pop\n      jump\t// out\n        /* \"#utility.yul\":3905:4271   */\n    tag_180:\n        /* \"#utility.yul\":4047:4050   */\n      0x00\n        /* \"#utility.yul\":4068:4135   */\n      tag_182\n        /* \"#utility.yul\":4132:4134   */\n      0x15\n        /* \"#utility.yul\":4127:4130   */\n      dup4\n        /* \"#utility.yul\":4068:4135   */\n      tag_165\n      jump\t// in\n    tag_182:\n        /* \"#utility.yul\":4061:4135   */\n      swap2\n      pop\n        /* \"#utility.yul\":4144:4237   */\n      tag_183\n        /* \"#utility.yul\":4233:4236   */\n      dup3\n        /* \"#utility.yul\":4144:4237   */\n      tag_184\n      jump\t// in\n    tag_183:\n        /* \"#utility.yul\":4262:4264   */\n      0x20\n        /* \"#utility.yul\":4257:4260   */\n      dup3\n        /* \"#utility.yul\":4253:4265   */\n      add\n        /* \"#utility.yul\":4246:4265   */\n      swap1\n      pop\n        /* \"#utility.yul\":3905:4271   */\n      swap2\n      swap1\n      pop\n      jump\t// out\n        /* \"#utility.yul\":4277:4643   */\n    tag_185:\n        /* \"#utility.yul\":4419:4422   */\n      0x00\n        /* \"#utility.yul\":4440:4507   */\n      tag_187\n        /* \"#utility.yul\":4504:4506   */\n      0x17\n        /* \"#utility.yul\":4499:4502   */\n      dup4\n        /* \"#utility.yul\":4440:4507   */\n      tag_165\n      jump\t// in\n    tag_187:\n        /* \"#utility.yul\":4433:4507   */\n      swap2\n      pop\n        /* \"#utility.yul\":4516:4609   */\n      tag_188\n        /* \"#utility.yul\":4605:4608   */\n      dup3\n        /* \"#utility.yul\":4516:4609   */\n      tag_189\n      jump\t// in\n    tag_188:\n        /* \"#utility.yul\":4634:4636   */\n      0x20\n        /* \"#utility.yul\":4629:4632   */\n      dup3\n        /* \"#utility.yul\":4625:4637   */\n      add\n        /* \"#utility.yul\":4618:4637   */\n      swap1\n      pop\n        /* \"#utility.yul\":4277:4643   */\n      swap2\n      swap1\n      pop\n      jump\t// out\n        /* \"#utility.yul\":4649:4767   */\n    tag_190:\n        /* \"#utility.yul\":4736:4760   */\n      tag_192\n        /* \"#utility.yul\":4754:4759   */\n      dup2\n        /* \"#utility.yul\":4736:4760   */\n      tag_193\n      jump\t// in\n    tag_192:\n        /* \"#utility.yul\":4731:4734   */\n      dup3\n        /* \"#utility.yul\":4724:4761   */\n      mstore\n        /* \"#utility.yul\":4649:4767   */\n      pop\n      pop\n      jump\t// out\n        /* \"#utility.yul\":4773:4885   */\n    tag_194:\n        /* \"#utility.yul\":4856:4878   */\n      tag_196\n        /* \"#utility.yul\":4872:4877   */\n      dup2\n        /* \"#utility.yul\":4856:4878   */\n      tag_197\n      jump\t// in\n    tag_196:\n        /* \"#utility.yul\":4851:4854   */\n      dup3\n        /* \"#utility.yul\":4844:4879   */\n      mstore\n        /* \"#utility.yul\":4773:4885   */\n      pop\n      pop\n      jump\t// out\n        /* \"#utility.yul\":4891:5113   */\n    tag_53:\n        /* \"#utility.yul\":4984:4988   */\n      0x00\n        /* \"#utility.yul\":5022:5024   */\n      0x20\n        /* \"#utility.yul\":5011:5020   */\n      dup3\n        /* \"#utility.yul\":5007:5025   */\n      add\n        /* \"#utility.yul\":4999:5025   */\n      swap1\n      pop\n        /* \"#utility.yul\":5035:5106   */\n      tag_199\n        /* \"#utility.yul\":5103:5104   */\n      0x00\n        /* \"#utility.yul\":5092:5101   */\n      dup4\n        /* \"#utility.yul\":5088:5105   */\n      add\n        /* \"#utility.yul\":5079:5085   */\n      dup5\n        /* \"#utility.yul\":5035:5106   */\n      tag_152\n      jump\t// in\n    tag_199:\n        /* \"#utility.yul\":4891:5113   */\n      swap3\n      swap2\n      pop\n      pop\n      jump\t// out\n        /* \"#utility.yul\":5119:5329   */\n    tag_27:\n        /* \"#utility.yul\":5206:5210   */\n      0x00\n        /* \"#utility.yul\":5244:5246   */\n      0x20\n        /* \"#utility.yul\":5233:5242   */\n      dup3\n        /* \"#utility.yul\":5229:5247   */\n      add\n        /* \"#utility.yul\":5221:5247   */\n      swap1\n      pop\n        /* \"#utility.yul\":5257:5322   */\n      tag_201\n        /* \"#utility.yul\":5319:5320   */\n      0x00\n        /* \"#utility.yul\":5308:5317   */\n      dup4\n        /* \"#utility.yul\":5304:5321   */\n      add\n        /* \"#utility.yul\":5295:5301   */\n      dup5\n        /* \"#utility.yul\":5257:5322   */\n      tag_156\n      jump\t// in\n    tag_201:\n        /* \"#utility.yul\":5119:5329   */\n      swap3\n      swap2\n      pop\n      pop\n      jump\t// out\n        /* \"#utility.yul\":5335:5648   */\n    tag_21:\n        /* \"#utility.yul\":5448:5452   */\n      0x00\n        /* \"#utility.yul\":5486:5488   */\n      0x20\n        /* \"#utility.yul\":5475:5484   */\n      dup3\n        /* \"#utility.yul\":5471:5489   */\n      add\n        /* \"#utility.yul\":5463:5489   */\n      swap1\n      pop\n        /* \"#utility.yul\":5535:5544   */\n      dup2\n        /* \"#utility.yul\":5529:5533   */\n      dup2\n        /* \"#utility.yul\":5525:5545   */\n      sub\n        /* \"#utility.yul\":5521:5522   */\n      0x00\n        /* \"#utility.yul\":5510:5519   */\n      dup4\n        /* \"#utility.yul\":5506:5523   */\n      add\n        /* \"#utility.yul\":5499:5546   */\n      mstore\n        /* \"#utility.yul\":5563:5641   */\n      tag_203\n        /* \"#utility.yul\":5636:5640   */\n      dup2\n        /* \"#utility.yul\":5627:5633   */\n      dup5\n        /* \"#utility.yul\":5563:5641   */\n      tag_160\n      jump\t// in\n    tag_203:\n        /* \"#utility.yul\":5555:5641   */\n      swap1\n      pop\n        /* \"#utility.yul\":5335:5648   */\n      swap3\n      swap2\n      pop\n      pop\n      jump\t// out\n        /* \"#utility.yul\":5654:6073   */\n    tag_100:\n        /* \"#utility.yul\":5820:5824   */\n      0x00\n        /* \"#utility.yul\":5858:5860   */\n      0x20\n        /* \"#utility.yul\":5847:5856   */\n      dup3\n        /* \"#utility.yul\":5843:5861   */\n      add\n        /* \"#utility.yul\":5835:5861   */\n      swap1\n      pop\n        /* \"#utility.yul\":5907:5916   */\n      dup2\n        /* \"#utility.yul\":5901:5905   */\n      dup2\n        /* \"#utility.yul\":5897:5917   */\n      sub\n        /* \"#utility.yul\":5893:5894   */\n      0x00\n        /* \"#utility.yul\":5882:5891   */\n      dup4\n        /* \"#utility.yul\":5878:5895   */\n      add\n        /* \"#utility.yul\":5871:5918   */\n      mstore\n        /* \"#utility.yul\":5935:6066   */\n      tag_205\n        /* \"#utility.yul\":6061:6065   */\n      dup2\n        /* \"#utility.yul\":5935:6066   */\n      tag_170\n      jump\t// in\n    tag_205:\n        /* \"#utility.yul\":5927:6066   */\n      swap1\n      pop\n        /* \"#utility.yul\":5654:6073   */\n      swap2\n      swap1\n      pop\n      jump\t// out\n        /* \"#utility.yul\":6079:6498   */\n    tag_110:\n        /* \"#utility.yul\":6245:6249   */\n      0x00\n        /* \"#utility.yul\":6283:6285   */\n      0x20\n        /* \"#utility.yul\":6272:6281   */\n      dup3\n        /* \"#utility.yul\":6268:6286   */\n      add\n        /* \"#utility.yul\":6260:6286   */\n      swap1\n      pop\n        /* \"#utility.yul\":6332:6341   */\n      dup2\n        /* \"#utility.yul\":6326:6330   */\n      dup2\n        /* \"#utility.yul\":6322:6342   */\n      sub\n        /* \"#utility.yul\":6318:6319   */\n      0x00\n        /* \"#utility.yul\":6307:6316   */\n      dup4\n        /* \"#utility.yul\":6303:6320   */\n      add\n        /* \"#utility.yul\":6296:6343   */\n      mstore\n        /* \"#utility.yul\":6360:6491   */\n      tag_207\n        /* \"#utility.yul\":6486:6490   */\n      dup2\n        /* \"#utility.yul\":6360:6491   */\n      tag_175\n      jump\t// in\n    tag_207:\n        /* \"#utility.yul\":6352:6491   */\n      swap1\n      pop\n        /* \"#utility.yul\":6079:6498   */\n      swap2\n      swap1\n      pop\n      jump\t// out\n        /* \"#utility.yul\":6504:6923   */\n    tag_88:\n        /* \"#utility.yul\":6670:6674   */\n      0x00\n        /* \"#utility.yul\":6708:6710   */\n      0x20\n        /* \"#utility.yul\":6697:6706   */\n      dup3\n        /* \"#utility.yul\":6693:6711   */\n      add\n        /* \"#utility.yul\":6685:6711   */\n      swap1\n      pop\n        /* \"#utility.yul\":6757:6766   */\n      dup2\n        /* \"#utility.yul\":6751:6755   */\n      dup2\n        /* \"#utility.yul\":6747:6767   */\n      sub\n        /* \"#utility.yul\":6743:6744   */\n      0x00\n        /* \"#utility.yul\":6732:6741   */\n      dup4\n        /* \"#utility.yul\":6728:6745   */\n      add\n        /* \"#utility.yul\":6721:6768   */\n      mstore\n        /* \"#utility.yul\":6785:6916   */\n      tag_209\n        /* \"#utility.yul\":6911:6915   */\n      dup2\n        /* \"#utility.yul\":6785:6916   */\n      tag_180\n      jump\t// in\n    tag_209:\n        /* \"#utility.yul\":6777:6916   */\n      swap1\n      pop\n        /* \"#utility.yul\":6504:6923   */\n      swap2\n      swap1\n      pop\n      jump\t// out\n        /* \"#utility.yul\":6929:7348   */\n    tag_107:\n        /* \"#utility.yul\":7095:7099   */\n      0x00\n        /* \"#utility.yul\":7133:7135   */\n      0x20\n        /* \"#utility.yul\":7122:7131   */\n      dup3\n        /* \"#utility.yul\":7118:7136   */\n      add\n        /* \"#utility.yul\":7110:7136   */\n      swap1\n      pop\n        /* \"#utility.yul\":7182:7191   */\n      dup2\n        /* \"#utility.yul\":7176:7180   */\n      dup2\n        /* \"#utility.yul\":7172:7192   */\n      sub\n        /* \"#utility.yul\":7168:7169   */\n      0x00\n        /* \"#utility.yul\":7157:7166   */\n      dup4\n        /* \"#utility.yul\":7153:7170   */\n      add\n        /* \"#utility.yul\":7146:7193   */\n      mstore\n        /* \"#utility.yul\":7210:7341   */\n      tag_211\n        /* \"#utility.yul\":7336:7340   */\n      dup2\n        /* \"#utility.yul\":7210:7341   */\n      tag_185\n      jump\t// in\n    tag_211:\n        /* \"#utility.yul\":7202:7341   */\n      swap1\n      pop\n        /* \"#utility.yul\":6929:7348   */\n      swap2\n      swap1\n      pop\n      jump\t// out\n        /* \"#utility.yul\":7354:7576   */\n    tag_31:\n        /* \"#utility.yul\":7447:7451   */\n      0x00\n        /* \"#utility.yul\":7485:7487   */\n      0x20\n        /* \"#utility.yul\":7474:7483   */\n      dup3\n        /* \"#utility.yul\":7470:7488   */\n      add\n        /* \"#utility.yul\":7462:7488   */\n      swap1\n      pop\n        /* \"#utility.yul\":7498:7569   */\n      tag_213\n        /* \"#utility.yul\":7566:7567   */\n      0x00\n        /* \"#utility.yul\":7555:7564   */\n      dup4\n        /* \"#utility.yul\":7551:7568   */\n      add\n        /* \"#utility.yul\":7542:7548   */\n      dup5\n        /* \"#utility.yul\":7498:7569   */\n      tag_190\n      jump\t// in\n    tag_213:\n        /* \"#utility.yul\":7354:7576   */\n      swap3\n      swap2\n      pop\n      pop\n      jump\t// out\n        /* \"#utility.yul\":7582:7796   */\n    tag_40:\n        /* \"#utility.yul\":7671:7675   */\n      0x00\n        /* \"#utility.yul\":7709:7711   */\n      0x20\n        /* \"#utility.yul\":7698:7707   */\n      dup3\n        /* \"#utility.yul\":7694:7712   */\n      add\n        /* \"#utility.yul\":7686:7712   */\n      swap1\n      pop\n        /* \"#utility.yul\":7722:7789   */\n      tag_215\n        /* \"#utility.yul\":7786:7787   */\n      0x00\n        /* \"#utility.yul\":7775:7784   */\n      dup4\n        /* \"#utility.yul\":7771:7788   */\n      add\n        /* \"#utility.yul\":7762:7768   */\n      dup5\n        /* \"#utility.yul\":7722:7789   */\n      tag_194\n      jump\t// in\n    tag_215:\n        /* \"#utility.yul\":7582:7796   */\n      swap3\n      swap2\n      pop\n      pop\n      jump\t// out\n        /* \"#utility.yul\":7883:7982   */\n    tag_163:\n        /* \"#utility.yul\":7935:7941   */\n      0x00\n        /* \"#utility.yul\":7969:7974   */\n      dup2\n        /* \"#utility.yul\":7963:7975   */\n      mload\n        /* \"#utility.yul\":7953:7975   */\n      swap1\n      pop\n        /* \"#utility.yul\":7883:7982   */\n      swap2\n      swap1\n      pop\n      jump\t// out\n        /* \"#utility.yul\":7988:8157   */\n    tag_165:\n        /* \"#utility.yul\":8072:8083   */\n      0x00\n        /* \"#utility.yul\":8106:8112   */\n      dup3\n        /* \"#utility.yul\":8101:8104   */\n      dup3\n        /* \"#utility.yul\":8094:8113   */\n      mstore\n        /* \"#utility.yul\":8146:8150   */\n      0x20\n        /* \"#utility.yul\":8141:8144   */\n      dup3\n        /* \"#utility.yul\":8137:8151   */\n      add\n        /* \"#utility.yul\":8122:8151   */\n      swap1\n      pop\n        /* \"#utility.yul\":7988:8157   */\n      swap3\n      swap2\n      pop\n      pop\n      jump\t// out\n        /* \"#utility.yul\":8163:8468   */\n    tag_83:\n        /* \"#utility.yul\":8203:8206   */\n      0x00\n        /* \"#utility.yul\":8222:8242   */\n      tag_221\n        /* \"#utility.yul\":8240:8241   */\n      dup3\n        /* \"#utility.yul\":8222:8242   */\n      tag_193\n      jump\t// in\n    tag_221:\n        /* \"#utility.yul\":8217:8242   */\n      swap2\n      pop\n        /* \"#utility.yul\":8256:8276   */\n      tag_222\n        /* \"#utility.yul\":8274:8275   */\n      dup4\n        /* \"#utility.yul\":8256:8276   */\n      tag_193\n      jump\t// in\n    tag_222:\n        /* \"#utility.yul\":8251:8276   */\n      swap3\n      pop\n        /* \"#utility.yul\":8410:8411   */\n      dup3\n        /* \"#utility.yul\":8342:8408   */\n      0xffffffffffffffffffffffffffffffffffffffffffffffffffffffffffffffff\n        /* \"#utility.yul\":8338:8412   */\n      sub\n        /* \"#utility.yul\":8335:8336   */\n      dup3\n        /* \"#utility.yul\":8332:8413   */\n      gt\n        /* \"#utility.yul\":8329:8436   */\n      iszero\n      tag_223\n      jumpi\n        /* \"#utility.yul\":8416:8434   */\n      tag_224\n      tag_225\n      jump\t// in\n    tag_224:\n        /* \"#utility.yul\":8329:8436   */\n    tag_223:\n        /* \"#utility.yul\":8460:8461   */\n      dup3\n        /* \"#utility.yul\":8457:8458   */\n      dup3\n        /* \"#utility.yul\":8453:8462   */\n      add\n        /* \"#utility.yul\":8446:8462   */\n      swap1\n      pop\n        /* \"#utility.yul\":8163:8468   */\n      swap3\n      swap2\n      pop\n      pop\n      jump\t// out\n        /* \"#utility.yul\":8474:8665   */\n    tag_80:\n        /* \"#utility.yul\":8514:8518   */\n      0x00\n        /* \"#utility.yul\":8534:8554   */\n      tag_227\n        /* \"#utility.yul\":8552:8553   */\n      dup3\n        /* \"#utility.yul\":8534:8554   */\n      tag_193\n      jump\t// in\n    tag_227:\n        /* \"#utility.yul\":8529:8554   */\n      swap2\n      pop\n        /* \"#utility.yul\":8568:8588   */\n      tag_228\n        /* \"#utility.yul\":8586:8587   */\n      dup4\n        /* \"#utility.yul\":8568:8588   */\n      tag_193\n      jump\t// in\n    tag_228:\n        /* \"#utility.yul\":8563:8588   */\n      swap3\n      pop\n        /* \"#utility.yul\":8607:8608   */\n      dup3\n        /* \"#utility.yul\":8604:8605   */\n      dup3\n        /* \"#utility.yul\":8601:8609   */\n      lt\n        /* \"#utility.yul\":8598:8632   */\n      iszero\n      tag_229\n      jumpi\n        /* \"#utility.yul\":8612:8630   */\n      tag_230\n      tag_225\n      jump\t// in\n    tag_230:\n        /* \"#utility.yul\":8598:8632   */\n    tag_229:\n        /* \"#utility.yul\":8657:8658   */\n      dup3\n        /* \"#utility.yul\":8654:8655   */\n      dup3\n        /* \"#utility.yul\":8650:8659   */\n      sub\n        /* \"#utility.yul\":8642:8659   */\n      swap1\n      pop\n        /* \"#utility.yul\":8474:8665   */\n      swap3\n      swap2\n      pop\n      pop\n      jump\t// out\n        /* \"#utility.yul\":8671:8767   */\n    tag_155:\n        /* \"#utility.yul\":8708:8715   */\n      0x00\n        /* \"#utility.yul\":8737:8761   */\n      tag_232\n        /* \"#utility.yul\":8755:8760   */\n      dup3\n        /* \"#utility.yul\":8737:8761   */\n      tag_233\n      jump\t// in\n    tag_232:\n        /* \"#utility.yul\":8726:8761   */\n      swap1\n      pop\n        /* \"#utility.yul\":8671:8767   */\n      swap2\n      swap1\n      pop\n      jump\t// out\n        /* \"#utility.yul\":8773:8863   */\n    tag_159:\n        /* \"#utility.yul\":8807:8814   */\n      0x00\n        /* \"#utility.yul\":8850:8855   */\n      dup2\n        /* \"#utility.yul\":8843:8856   */\n      iszero\n        /* \"#utility.yul\":8836:8857   */\n      iszero\n        /* \"#utility.yul\":8825:8857   */\n      swap1\n      pop\n        /* \"#utility.yul\":8773:8863   */\n      swap2\n      swap1\n      pop\n      jump\t// out\n        /* \"#utility.yul\":8869:8995   */\n    tag_233:\n        /* \"#utility.yul\":8906:8913   */\n      0x00\n        /* \"#utility.yul\":8946:8988   */\n      0xffffffffffffffffffffffffffffffffffffffff\n        /* \"#utility.yul\":8939:8944   */\n      dup3\n        /* \"#utility.yul\":8935:8989   */\n      and\n        /* \"#utility.yul\":8924:8989   */\n      swap1\n      pop\n        /* \"#utility.yul\":8869:8995   */\n      swap2\n      swap1\n      pop\n      jump\t// out\n        /* \"#utility.yul\":9001:9078   */\n    tag_193:\n        /* \"#utility.yul\":9038:9045   */\n      0x00\n        /* \"#utility.yul\":9067:9072   */\n      dup2\n        /* \"#utility.yul\":9056:9072   */\n      swap1\n      pop\n        /* \"#utility.yul\":9001:9078   */\n      swap2\n      swap1\n      pop\n      jump\t// out\n        /* \"#utility.yul\":9084:9170   */\n    tag_197:\n        /* \"#utility.yul\":9119:9126   */\n      0x00\n        /* \"#utility.yul\":9159:9163   */\n      0xff\n        /* \"#utility.yul\":9152:9157   */\n      dup3\n        /* \"#utility.yul\":9148:9164   */\n      and\n        /* \"#utility.yul\":9137:9164   */\n      swap1\n      pop\n        /* \"#utility.yul\":9084:9170   */\n      swap2\n      swap1\n      pop\n      jump\t// out\n        /* \"#utility.yul\":9176:9483   */\n    tag_167:\n        /* \"#utility.yul\":9244:9245   */\n      0x00\n        /* \"#utility.yul\":9254:9367   */\n    tag_239:\n        /* \"#utility.yul\":9268:9274   */\n      dup4\n        /* \"#utility.yul\":9265:9266   */\n      dup2\n        /* \"#utility.yul\":9262:9275   */\n      lt\n        /* \"#utility.yul\":9254:9367   */\n      iszero\n      tag_241\n      jumpi\n        /* \"#utility.yul\":9353:9354   */\n      dup1\n        /* \"#utility.yul\":9348:9351   */\n      dup3\n        /* \"#utility.yul\":9344:9355   */\n      add\n        /* \"#utility.yul\":9338:9356   */\n      mload\n        /* \"#utility.yul\":9334:9335   */\n      dup2\n        /* \"#utility.yul\":9329:9332   */\n      dup5\n        /* \"#utility.yul\":9325:9336   */\n      add\n        /* \"#utility.yul\":9318:9357   */\n      mstore\n        /* \"#utility.yul\":9290:9292   */\n      0x20\n        /* \"#utility.yul\":9287:9288   */\n      dup2\n        /* \"#utility.yul\":9283:9293   */\n      add\n        /* \"#utility.yul\":9278:9293   */\n      swap1\n      pop\n        /* \"#utility.yul\":9254:9367   */\n      jump(tag_239)\n    tag_241:\n        /* \"#utility.yul\":9385:9391   */\n      dup4\n        /* \"#utility.yul\":9382:9383   */\n      dup2\n        /* \"#utility.yul\":9379:9392   */\n      gt\n        /* \"#utility.yul\":9376:9477   */\n      iszero\n      tag_242\n      jumpi\n        /* \"#utility.yul\":9465:9466   */\n      0x00\n        /* \"#utility.yul\":9456:9462   */\n      dup5\n        /* \"#utility.yul\":9451:9454   */\n      dup5\n        /* \"#utility.yul\":9447:9463   */\n      add\n        /* \"#utility.yul\":9440:9467   */\n      mstore\n        /* \"#utility.yul\":9376:9477   */\n    tag_242:\n        /* \"#utility.yul\":9225:9483   */\n      pop\n        /* \"#utility.yul\":9176:9483   */\n      pop\n      pop\n      pop\n      jump\t// out\n        /* \"#utility.yul\":9489:9669   */\n    tag_225:\n        /* \"#utility.yul\":9537:9614   */\n      0x4e487b7100000000000000000000000000000000000000000000000000000000\n        /* \"#utility.yul\":9534:9535   */\n      0x00\n        /* \"#utility.yul\":9527:9615   */\n      mstore\n        /* \"#utility.yul\":9634:9638   */\n      0x11\n        /* \"#utility.yul\":9631:9632   */\n      0x04\n        /* \"#utility.yul\":9624:9639   */\n      mstore\n        /* \"#utility.yul\":9658:9662   */\n      0x24\n        /* \"#utility.yul\":9655:9656   */\n      0x00\n        /* \"#utility.yul\":9648:9663   */\n      revert\n        /* \"#utility.yul\":9798:9915   */\n    tag_130:\n        /* \"#utility.yul\":9907:9908   */\n      0x00\n        /* \"#utility.yul\":9904:9905   */\n      dup1\n        /* \"#utility.yul\":9897:9909   */\n      revert\n        /* \"#utility.yul\":9921:10023   */\n    tag_169:\n        /* \"#utility.yul\":9962:9968   */\n      0x00\n        /* \"#utility.yul\":10013:10015   */\n      0x1f\n        /* \"#utility.yul\":10009:10016   */\n      not\n        /* \"#utility.yul\":10004:10006   */\n      0x1f\n        /* \"#utility.yul\":9997:10002   */\n      dup4\n        /* \"#utility.yul\":9993:10007   */\n      add\n        /* \"#utility.yul\":9989:10017   */\n      and\n        /* \"#utility.yul\":9979:10017   */\n      swap1\n      pop\n        /* \"#utility.yul\":9921:10023   */\n      swap2\n      swap1\n      pop\n      jump\t// out\n        /* \"#utility.yul\":10029:10204   */\n    tag_174:\n        /* \"#utility.yul\":10169:10196   */\n      0x596f7520617265206e6f7420616c6c6f7720746f206275726e00000000000000\n        /* \"#utility.yul\":10165:10166   */\n      0x00\n        /* \"#utility.yul\":10157:10163   */\n      dup3\n        /* \"#utility.yul\":10153:10167   */\n      add\n        /* \"#utility.yul\":10146:10197   */\n      mstore\n        /* \"#utility.yul\":10029:10204   */\n      pop\n      jump\t// out\n        /* \"#utility.yul\":10210:10390   */\n    tag_179:\n        /* \"#utility.yul\":10350:10382   */\n      0x4e6f7420656e6f7567682053515420696e20796f75722062616c616e63650000\n        /* \"#utility.yul\":10346:10347   */\n      0x00\n        /* \"#utility.yul\":10338:10344   */\n      dup3\n        /* \"#utility.yul\":10334:10348   */\n      add\n        /* \"#utility.yul\":10327:10383   */\n      mstore\n        /* \"#utility.yul\":10210:10390   */\n      pop\n      jump\t// out\n        /* \"#utility.yul\":10396:10567   */\n    tag_184:\n        /* \"#utility.yul\":10536:10559   */\n      0x796f7520617265206e6f7420746865206f776e65720000000000000000000000\n        /* \"#utility.yul\":10532:10533   */\n      0x00\n        /* \"#utility.yul\":10524:10530   */\n      dup3\n        /* \"#utility.yul\":10520:10534   */\n      add\n        /* \"#utility.yul\":10513:10560   */\n      mstore\n        /* \"#utility.yul\":10396:10567   */\n      pop\n      jump\t// out\n        /* \"#utility.yul\":10573:10746   */\n    tag_189:\n        /* \"#utility.yul\":10713:10738   */\n      0x506c6561736520656e74657220616e2061646472657373000000000000000000\n        /* \"#utility.yul\":10709:10710   */\n      0x00\n        /* \"#utility.yul\":10701:10707   */\n      dup3\n        /* \"#utility.yul\":10697:10711   */\n      add\n        /* \"#utility.yul\":10690:10739   */\n      mstore\n        /* \"#utility.yul\":10573:10746   */\n      pop\n      jump\t// out\n        /* \"#utility.yul\":10752:10874   */\n    tag_122:\n        /* \"#utility.yul\":10825:10849   */\n      tag_253\n        /* \"#utility.yul\":10843:10848   */\n      dup2\n        /* \"#utility.yul\":10825:10849   */\n      tag_155\n      jump\t// in\n    tag_253:\n        /* \"#utility.yul\":10818:10823   */\n      dup2\n        /* \"#utility.yul\":10815:10850   */\n      eq\n        /* \"#utility.yul\":10805:10868   */\n      tag_254\n      jumpi\n        /* \"#utility.yul\":10864:10865   */\n      0x00\n        /* \"#utility.yul\":10861:10862   */\n      dup1\n        /* \"#utility.yul\":10854:10866   */\n      revert\n        /* \"#utility.yul\":10805:10868   */\n    tag_254:\n        /* \"#utility.yul\":10752:10874   */\n      pop\n      jump\t// out\n        /* \"#utility.yul\":10880:11002   */\n    tag_126:\n        /* \"#utility.yul\":10953:10977   */\n      tag_256\n        /* \"#utility.yul\":10971:10976   */\n      dup2\n        /* \"#utility.yul\":10953:10977   */\n      tag_193\n      jump\t// in\n    tag_256:\n        /* \"#utility.yul\":10946:10951   */\n      dup2\n        /* \"#utility.yul\":10943:10978   */\n      eq\n        /* \"#utility.yul\":10933:10996   */\n      tag_257\n      jumpi\n        /* \"#utility.yul\":10992:10993   */\n      0x00\n        /* \"#utility.yul\":10989:10990   */\n      dup1\n        /* \"#utility.yul\":10982:10994   */\n      revert\n        /* \"#utility.yul\":10933:10996   */\n    tag_257:\n        /* \"#utility.yul\":10880:11002   */\n      pop\n      jump\t// out\n\n    auxdata: 0xa26469706673582212201c6d9ea8583834b5d7e6b97555c9fe1893825b962f91c3604767ad3c8426341464736f6c63430008070033\n}\n",
				"bytecode": {
					"linkReferences": {},
					"object": "60806040526012600060146101000a81548160ff021916908360ff1602179055503480156200002d57600080fd5b50604051620017cf380380620017cf833981810160405281019062000053919062000128565b336000806101000a81548173ffffffffffffffffffffffffffffffffffffffff021916908373ffffffffffffffffffffffffffffffffffffffff160217905550600060149054906101000a900460ff16600a620000b19190620001b5565b81620000be9190620002f2565b600181905550600154600260003373ffffffffffffffffffffffffffffffffffffffff1673ffffffffffffffffffffffffffffffffffffffff1681526020019081526020016000208190555050620003c5565b6000815190506200012281620003ab565b92915050565b60006020828403121562000141576200014062000399565b5b6000620001518482850162000111565b91505092915050565b6000808291508390505b6001851115620001ac578086048111156200018457620001836200036a565b5b6001851615620001945780820291505b8081029050620001a4856200039e565b945062000164565b94509492505050565b6000620001c28262000353565b9150620001cf836200035d565b9250620001fe7fffffffffffffffffffffffffffffffffffffffffffffffffffffffffffffffff848462000206565b905092915050565b600082620002185760019050620002eb565b81620002285760009050620002eb565b81600181146200024157600281146200024c5762000282565b6001915050620002eb565b60ff8411156200026157620002606200036a565b5b8360020a9150848211156200027b576200027a6200036a565b5b50620002eb565b5060208310610133831016604e8410600b8410161715620002bc5782820a905083811115620002b657620002b56200036a565b5b620002eb565b620002cb84848460016200015a565b92509050818404811115620002e557620002e46200036a565b5b81810290505b9392505050565b6000620002ff8262000353565b91506200030c8362000353565b9250817fffffffffffffffffffffffffffffffffffffffffffffffffffffffffffffffff04831182151516156200034857620003476200036a565b5b828202905092915050565b6000819050919050565b600060ff82169050919050565b7f4e487b7100000000000000000000000000000000000000000000000000000000600052601160045260246000fd5b600080fd5b60008160011c9050919050565b620003b68162000353565b8114620003c257600080fd5b50565b6113fa80620003d56000396000f3fe608060405234801561001057600080fd5b50600436106100cf5760003560e01c806342966c681161008c578063a9059cbb11610066578063a9059cbb1461022a578063d99678891461025a578063dd62ed3e1461028a578063f2fde38b146102ba576100cf565b806342966c68146101be5780638da5cb5b146101ee57806395d89b411461020c576100cf565b806306fdde03146100d4578063095ea7b3146100f257806318160ddd1461012257806323b872dd14610140578063313ce5671461017057806340c10f191461018e575b600080fd5b6100dc6102d6565b6040516100e991906110a7565b60405180910390f35b61010c60048036038101906101079190610f03565b61030f565b604051610119919061108c565b60405180910390f35b61012a610401565b6040516101379190611149565b60405180910390f35b61015a60048036038101906101559190610eb0565b610407565b604051610167919061108c565b60405180910390f35b61017861068d565b6040516101859190611164565b60405180910390f35b6101a860048036038101906101a39190610f03565b6106a0565b6040516101b5919061108c565b60405180910390f35b6101d860048036038101906101d39190610f43565b610849565b6040516101e5919061108c565b60405180910390f35b6101f6610a46565b6040516102039190611071565b60405180910390f35b610214610a6a565b60405161022191906110a7565b60405180910390f35b610244600480360381019061023f9190610f03565b610aa3565b604051610251919061108c565b60405180910390f35b610274600480360381019061026f9190610e43565b610cb1565b6040516102819190611149565b60405180910390f35b6102a4600480360381019061029f9190610e70565b610cc9565b6040516102b19190611149565b60405180910390f35b6102d460048036038101906102cf9190610e43565b610cee565b005b6040518060400160405280600d81526020017f537175697272656c546f6b656e0000000000000000000000000000000000000081525081565b600081600360003373ffffffffffffffffffffffffffffffffffffffff1673ffffffffffffffffffffffffffffffffffffffff16815260200190815260200160002060008573ffffffffffffffffffffffffffffffffffffffff1673ffffffffffffffffffffffffffffffffffffffff168152602001908152602001600020819055508273ffffffffffffffffffffffffffffffffffffffff163373ffffffffffffffffffffffffffffffffffffffff167f8c5be1e5ebec7d5bd14f71427d1e84f3dd0314c0f7b2291e5b200ac8c7c3b925846040516103ef9190611149565b60405180910390a36001905092915050565b60015481565b600081600260008673ffffffffffffffffffffffffffffffffffffffff1673ffffffffffffffffffffffffffffffffffffffff16815260200190815260200160002054101561045557600080fd5b81600360008673ffffffffffffffffffffffffffffffffffffffff1673ffffffffffffffffffffffffffffffffffffffff16815260200190815260200160002060003373ffffffffffffffffffffffffffffffffffffffff1673ffffffffffffffffffffffffffffffffffffffff1681526020019081526020016000205410156104de57600080fd5b81600360008673ffffffffffffffffffffffffffffffffffffffff1673ffffffffffffffffffffffffffffffffffffffff16815260200190815260200160002060003373ffffffffffffffffffffffffffffffffffffffff1673ffffffffffffffffffffffffffffffffffffffff168152602001908152602001600020600082825461056a91906111f1565b9250508190555081600260008673ffffffffffffffffffffffffffffffffffffffff1673ffffffffffffffffffffffffffffffffffffffff16815260200190815260200160002060008282546105c091906111f1565b9250508190555081600260008573ffffffffffffffffffffffffffffffffffffffff1673ffffffffffffffffffffffffffffffffffffffff1681526020019081526020016000206000828254610616919061119b565b925050819055508273ffffffffffffffffffffffffffffffffffffffff163373ffffffffffffffffffffffffffffffffffffffff167fddf252ad1be2c89b69c2b068fc378daa952ba7f163c4a11628f55a4df523b3ef8460405161067a9190611149565b60405180910390a3600190509392505050565b600060149054906101000a900460ff1681565b60008060009054906101000a900473ffffffffffffffffffffffffffffffffffffffff1673ffffffffffffffffffffffffffffffffffffffff163373ffffffffffffffffffffffffffffffffffffffff1614610731576040517f08c379a000000000000000000000000000000000000000000000000000000000815260040161072890611109565b60405180910390fd5b600073ffffffffffffffffffffffffffffffffffffffff168373ffffffffffffffffffffffffffffffffffffffff16141561076b57600080fd5b816001600082825461077d919061119b565b9250508190555081600260008573ffffffffffffffffffffffffffffffffffffffff1673ffffffffffffffffffffffffffffffffffffffff16815260200190815260200160002060008282546107d3919061119b565b925050819055508273ffffffffffffffffffffffffffffffffffffffff163373ffffffffffffffffffffffffffffffffffffffff167fddf252ad1be2c89b69c2b068fc378daa952ba7f163c4a11628f55a4df523b3ef846040516108379190611149565b60405180910390a36001905092915050565b60008060009054906101000a900473ffffffffffffffffffffffffffffffffffffffff1673ffffffffffffffffffffffffffffffffffffffff163373ffffffffffffffffffffffffffffffffffffffff16146108da576040517f08c379a00000000000000000000000000000000000000000000000000000000081526004016108d190611109565b60405180910390fd5b60008054906101000a900473ffffffffffffffffffffffffffffffffffffffff1673ffffffffffffffffffffffffffffffffffffffff163373ffffffffffffffffffffffffffffffffffffffff1614610968576040517f08c379a000000000000000000000000000000000000000000000000000000000815260040161095f906110c9565b60405180910390fd5b816001600082825461097a91906111f1565b9250508190555081600260003373ffffffffffffffffffffffffffffffffffffffff1673ffffffffffffffffffffffffffffffffffffffff16815260200190815260200160002060008282546109d091906111f1565b92505081905550600073ffffffffffffffffffffffffffffffffffffffff163373ffffffffffffffffffffffffffffffffffffffff167fddf252ad1be2c89b69c2b068fc378daa952ba7f163c4a11628f55a4df523b3ef84604051610a359190611149565b60405180910390a360019050919050565b60008054906101000a900473ffffffffffffffffffffffffffffffffffffffff1681565b6040518060400160405280600381526020017f535154000000000000000000000000000000000000000000000000000000000081525081565b60008073ffffffffffffffffffffffffffffffffffffffff168373ffffffffffffffffffffffffffffffffffffffff161415610b14576040517f08c379a0000000000000000000000000000000000000000000000000000000008152600401610b0b90611129565b60405180910390fd5b81600260003373ffffffffffffffffffffffffffffffffffffffff1673ffffffffffffffffffffffffffffffffffffffff168152602001908152602001600020541015610b96576040517f08c379a0000000000000000000000000000000000000000000000000000000008152600401610b8d906110e9565b60405180910390fd5b81600260003373ffffffffffffffffffffffffffffffffffffffff1673ffffffffffffffffffffffffffffffffffffffff1681526020019081526020016000206000828254610be591906111f1565b9250508190555081600260008573ffffffffffffffffffffffffffffffffffffffff1673ffffffffffffffffffffffffffffffffffffffff1681526020019081526020016000206000828254610c3b919061119b565b925050819055508273ffffffffffffffffffffffffffffffffffffffff163373ffffffffffffffffffffffffffffffffffffffff167fddf252ad1be2c89b69c2b068fc378daa952ba7f163c4a11628f55a4df523b3ef84604051610c9f9190611149565b60405180910390a36001905092915050565b60026020528060005260406000206000915090505481565b6003602052816000526040600020602052806000526040600020600091509150505481565b60008054906101000a900473ffffffffffffffffffffffffffffffffffffffff1673ffffffffffffffffffffffffffffffffffffffff163373ffffffffffffffffffffffffffffffffffffffff1614610d7c576040517f08c379a0000000000000000000000000000000000000000000000000000000008152600401610d7390611109565b60405180910390fd5b806000806101000a81548173ffffffffffffffffffffffffffffffffffffffff021916908373ffffffffffffffffffffffffffffffffffffffff1602179055508073ffffffffffffffffffffffffffffffffffffffff163373ffffffffffffffffffffffffffffffffffffffff167f342827c97908e5e2f71151c08502a66d44b6f758e3ac2f1de95f02eb95f0a73560405160405180910390a350565b600081359050610e2881611396565b92915050565b600081359050610e3d816113ad565b92915050565b600060208284031215610e5957610e586112dc565b5b6000610e6784828501610e19565b91505092915050565b60008060408385031215610e8757610e866112dc565b5b6000610e9585828601610e19565b9250506020610ea685828601610e19565b9150509250929050565b600080600060608486031215610ec957610ec86112dc565b5b6000610ed786828701610e19565b9350506020610ee886828701610e19565b9250506040610ef986828701610e2e565b9150509250925092565b60008060408385031215610f1a57610f196112dc565b5b6000610f2885828601610e19565b9250506020610f3985828601610e2e565b9150509250929050565b600060208284031215610f5957610f586112dc565b5b6000610f6784828501610e2e565b91505092915050565b610f7981611225565b82525050565b610f8881611237565b82525050565b6000610f998261117f565b610fa3818561118a565b9350610fb381856020860161127a565b610fbc816112e1565b840191505092915050565b6000610fd460198361118a565b9150610fdf826112f2565b602082019050919050565b6000610ff7601e8361118a565b91506110028261131b565b602082019050919050565b600061101a60158361118a565b915061102582611344565b602082019050919050565b600061103d60178361118a565b91506110488261136d565b602082019050919050565b61105c81611263565b82525050565b61106b8161126d565b82525050565b60006020820190506110866000830184610f70565b92915050565b60006020820190506110a16000830184610f7f565b92915050565b600060208201905081810360008301526110c18184610f8e565b905092915050565b600060208201905081810360008301526110e281610fc7565b9050919050565b6000602082019050818103600083015261110281610fea565b9050919050565b600060208201905081810360008301526111228161100d565b9050919050565b6000602082019050818103600083015261114281611030565b9050919050565b600060208201905061115e6000830184611053565b92915050565b60006020820190506111796000830184611062565b92915050565b600081519050919050565b600082825260208201905092915050565b60006111a682611263565b91506111b183611263565b9250827fffffffffffffffffffffffffffffffffffffffffffffffffffffffffffffffff038211156111e6576111e56112ad565b5b828201905092915050565b60006111fc82611263565b915061120783611263565b92508282101561121a576112196112ad565b5b828203905092915050565b600061123082611243565b9050919050565b60008115159050919050565b600073ffffffffffffffffffffffffffffffffffffffff82169050919050565b6000819050919050565b600060ff82169050919050565b60005b8381101561129857808201518184015260208101905061127d565b838111156112a7576000848401525b50505050565b7f4e487b7100000000000000000000000000000000000000000000000000000000600052601160045260246000fd5b600080fd5b6000601f19601f8301169050919050565b7f596f7520617265206e6f7420616c6c6f7720746f206275726e00000000000000600082015250565b7f4e6f7420656e6f7567682053515420696e20796f75722062616c616e63650000600082015250565b7f796f7520617265206e6f7420746865206f776e65720000000000000000000000600082015250565b7f506c6561736520656e74657220616e2061646472657373000000000000000000600082015250565b61139f81611225565b81146113aa57600080fd5b50565b6113b681611263565b81146113c157600080fd5b5056fea26469706673582212201c6d9ea8583834b5d7e6b97555c9fe1893825b962f91c3604767ad3c8426341464736f6c63430008070033",
					"opcodes": "PUSH1 0x80 PUSH1 0x40 MSTORE PUSH1 0x12 PUSH1 0x0 PUSH1 0x14 PUSH2 0x100 EXP DUP2 SLOAD DUP2 PUSH1 0xFF MUL NOT AND SWAP1 DUP4 PUSH1 0xFF AND MUL OR SWAP1 SSTORE POP CALLVALUE DUP1 ISZERO PUSH3 0x2D JUMPI PUSH1 0x0 DUP1 REVERT JUMPDEST POP PUSH1 0x40 MLOAD PUSH3 0x17CF CODESIZE SUB DUP1 PUSH3 0x17CF DUP4 CODECOPY DUP2 DUP2 ADD PUSH1 0x40 MSTORE DUP2 ADD SWAP1 PUSH3 0x53 SWAP2 SWAP1 PUSH3 0x128 JUMP JUMPDEST CALLER PUSH1 0x0 DUP1 PUSH2 0x100 EXP DUP2 SLOAD DUP2 PUSH20 0xFFFFFFFFFFFFFFFFFFFFFFFFFFFFFFFFFFFFFFFF MUL NOT AND SWAP1 DUP4 PUSH20 0xFFFFFFFFFFFFFFFFFFFFFFFFFFFFFFFFFFFFFFFF AND MUL OR SWAP1 SSTORE POP PUSH1 0x0 PUSH1 0x14 SWAP1 SLOAD SWAP1 PUSH2 0x100 EXP SWAP1 DIV PUSH1 0xFF AND PUSH1 0xA PUSH3 0xB1 SWAP2 SWAP1 PUSH3 0x1B5 JUMP JUMPDEST DUP2 PUSH3 0xBE SWAP2 SWAP1 PUSH3 0x2F2 JUMP JUMPDEST PUSH1 0x1 DUP2 SWAP1 SSTORE POP PUSH1 0x1 SLOAD PUSH1 0x2 PUSH1 0x0 CALLER PUSH20 0xFFFFFFFFFFFFFFFFFFFFFFFFFFFFFFFFFFFFFFFF AND PUSH20 0xFFFFFFFFFFFFFFFFFFFFFFFFFFFFFFFFFFFFFFFF AND DUP2 MSTORE PUSH1 0x20 ADD SWAP1 DUP2 MSTORE PUSH1 0x20 ADD PUSH1 0x0 KECCAK256 DUP2 SWAP1 SSTORE POP POP PUSH3 0x3C5 JUMP JUMPDEST PUSH1 0x0 DUP2 MLOAD SWAP1 POP PUSH3 0x122 DUP2 PUSH3 0x3AB JUMP JUMPDEST SWAP3 SWAP2 POP POP JUMP JUMPDEST PUSH1 0x0 PUSH1 0x20 DUP3 DUP5 SUB SLT ISZERO PUSH3 0x141 JUMPI PUSH3 0x140 PUSH3 0x399 JUMP JUMPDEST JUMPDEST PUSH1 0x0 PUSH3 0x151 DUP5 DUP3 DUP6 ADD PUSH3 0x111 JUMP JUMPDEST SWAP2 POP POP SWAP3 SWAP2 POP POP JUMP JUMPDEST PUSH1 0x0 DUP1 DUP3 SWAP2 POP DUP4 SWAP1 POP JUMPDEST PUSH1 0x1 DUP6 GT ISZERO PUSH3 0x1AC JUMPI DUP1 DUP7 DIV DUP2 GT ISZERO PUSH3 0x184 JUMPI PUSH3 0x183 PUSH3 0x36A JUMP JUMPDEST JUMPDEST PUSH1 0x1 DUP6 AND ISZERO PUSH3 0x194 JUMPI DUP1 DUP3 MUL SWAP2 POP JUMPDEST DUP1 DUP2 MUL SWAP1 POP PUSH3 0x1A4 DUP6 PUSH3 0x39E JUMP JUMPDEST SWAP5 POP PUSH3 0x164 JUMP JUMPDEST SWAP5 POP SWAP5 SWAP3 POP POP POP JUMP JUMPDEST PUSH1 0x0 PUSH3 0x1C2 DUP3 PUSH3 0x353 JUMP JUMPDEST SWAP2 POP PUSH3 0x1CF DUP4 PUSH3 0x35D JUMP JUMPDEST SWAP3 POP PUSH3 0x1FE PUSH32 0xFFFFFFFFFFFFFFFFFFFFFFFFFFFFFFFFFFFFFFFFFFFFFFFFFFFFFFFFFFFFFFFF DUP5 DUP5 PUSH3 0x206 JUMP JUMPDEST SWAP1 POP SWAP3 SWAP2 POP POP JUMP JUMPDEST PUSH1 0x0 DUP3 PUSH3 0x218 JUMPI PUSH1 0x1 SWAP1 POP PUSH3 0x2EB JUMP JUMPDEST DUP2 PUSH3 0x228 JUMPI PUSH1 0x0 SWAP1 POP PUSH3 0x2EB JUMP JUMPDEST DUP2 PUSH1 0x1 DUP2 EQ PUSH3 0x241 JUMPI PUSH1 0x2 DUP2 EQ PUSH3 0x24C JUMPI PUSH3 0x282 JUMP JUMPDEST PUSH1 0x1 SWAP2 POP POP PUSH3 0x2EB JUMP JUMPDEST PUSH1 0xFF DUP5 GT ISZERO PUSH3 0x261 JUMPI PUSH3 0x260 PUSH3 0x36A JUMP JUMPDEST JUMPDEST DUP4 PUSH1 0x2 EXP SWAP2 POP DUP5 DUP3 GT ISZERO PUSH3 0x27B JUMPI PUSH3 0x27A PUSH3 0x36A JUMP JUMPDEST JUMPDEST POP PUSH3 0x2EB JUMP JUMPDEST POP PUSH1 0x20 DUP4 LT PUSH2 0x133 DUP4 LT AND PUSH1 0x4E DUP5 LT PUSH1 0xB DUP5 LT AND OR ISZERO PUSH3 0x2BC JUMPI DUP3 DUP3 EXP SWAP1 POP DUP4 DUP2 GT ISZERO PUSH3 0x2B6 JUMPI PUSH3 0x2B5 PUSH3 0x36A JUMP JUMPDEST JUMPDEST PUSH3 0x2EB JUMP JUMPDEST PUSH3 0x2CB DUP5 DUP5 DUP5 PUSH1 0x1 PUSH3 0x15A JUMP JUMPDEST SWAP3 POP SWAP1 POP DUP2 DUP5 DIV DUP2 GT ISZERO PUSH3 0x2E5 JUMPI PUSH3 0x2E4 PUSH3 0x36A JUMP JUMPDEST JUMPDEST DUP2 DUP2 MUL SWAP1 POP JUMPDEST SWAP4 SWAP3 POP POP POP JUMP JUMPDEST PUSH1 0x0 PUSH3 0x2FF DUP3 PUSH3 0x353 JUMP JUMPDEST SWAP2 POP PUSH3 0x30C DUP4 PUSH3 0x353 JUMP JUMPDEST SWAP3 POP DUP2 PUSH32 0xFFFFFFFFFFFFFFFFFFFFFFFFFFFFFFFFFFFFFFFFFFFFFFFFFFFFFFFFFFFFFFFF DIV DUP4 GT DUP3 ISZERO ISZERO AND ISZERO PUSH3 0x348 JUMPI PUSH3 0x347 PUSH3 0x36A JUMP JUMPDEST JUMPDEST DUP3 DUP3 MUL SWAP1 POP SWAP3 SWAP2 POP POP JUMP JUMPDEST PUSH1 0x0 DUP2 SWAP1 POP SWAP2 SWAP1 POP JUMP JUMPDEST PUSH1 0x0 PUSH1 0xFF DUP3 AND SWAP1 POP SWAP2 SWAP1 POP JUMP JUMPDEST PUSH32 0x4E487B7100000000000000000000000000000000000000000000000000000000 PUSH1 0x0 MSTORE PUSH1 0x11 PUSH1 0x4 MSTORE PUSH1 0x24 PUSH1 0x0 REVERT JUMPDEST PUSH1 0x0 DUP1 REVERT JUMPDEST PUSH1 0x0 DUP2 PUSH1 0x1 SHR SWAP1 POP SWAP2 SWAP1 POP JUMP JUMPDEST PUSH3 0x3B6 DUP2 PUSH3 0x353 JUMP JUMPDEST DUP2 EQ PUSH3 0x3C2 JUMPI PUSH1 0x0 DUP1 REVERT JUMPDEST POP JUMP JUMPDEST PUSH2 0x13FA DUP1 PUSH3 0x3D5 PUSH1 0x0 CODECOPY PUSH1 0x0 RETURN INVALID PUSH1 0x80 PUSH1 0x40 MSTORE CALLVALUE DUP1 ISZERO PUSH2 0x10 JUMPI PUSH1 0x0 DUP1 REVERT JUMPDEST POP PUSH1 0x4 CALLDATASIZE LT PUSH2 0xCF JUMPI PUSH1 0x0 CALLDATALOAD PUSH1 0xE0 SHR DUP1 PUSH4 0x42966C68 GT PUSH2 0x8C JUMPI DUP1 PUSH4 0xA9059CBB GT PUSH2 0x66 JUMPI DUP1 PUSH4 0xA9059CBB EQ PUSH2 0x22A JUMPI DUP1 PUSH4 0xD9967889 EQ PUSH2 0x25A JUMPI DUP1 PUSH4 0xDD62ED3E EQ PUSH2 0x28A JUMPI DUP1 PUSH4 0xF2FDE38B EQ PUSH2 0x2BA JUMPI PUSH2 0xCF JUMP JUMPDEST DUP1 PUSH4 0x42966C68 EQ PUSH2 0x1BE JUMPI DUP1 PUSH4 0x8DA5CB5B EQ PUSH2 0x1EE JUMPI DUP1 PUSH4 0x95D89B41 EQ PUSH2 0x20C JUMPI PUSH2 0xCF JUMP JUMPDEST DUP1 PUSH4 0x6FDDE03 EQ PUSH2 0xD4 JUMPI DUP1 PUSH4 0x95EA7B3 EQ PUSH2 0xF2 JUMPI DUP1 PUSH4 0x18160DDD EQ PUSH2 0x122 JUMPI DUP1 PUSH4 0x23B872DD EQ PUSH2 0x140 JUMPI DUP1 PUSH4 0x313CE567 EQ PUSH2 0x170 JUMPI DUP1 PUSH4 0x40C10F19 EQ PUSH2 0x18E JUMPI JUMPDEST PUSH1 0x0 DUP1 REVERT JUMPDEST PUSH2 0xDC PUSH2 0x2D6 JUMP JUMPDEST PUSH1 0x40 MLOAD PUSH2 0xE9 SWAP2 SWAP1 PUSH2 0x10A7 JUMP JUMPDEST PUSH1 0x40 MLOAD DUP1 SWAP2 SUB SWAP1 RETURN JUMPDEST PUSH2 0x10C PUSH1 0x4 DUP1 CALLDATASIZE SUB DUP2 ADD SWAP1 PUSH2 0x107 SWAP2 SWAP1 PUSH2 0xF03 JUMP JUMPDEST PUSH2 0x30F JUMP JUMPDEST PUSH1 0x40 MLOAD PUSH2 0x119 SWAP2 SWAP1 PUSH2 0x108C JUMP JUMPDEST PUSH1 0x40 MLOAD DUP1 SWAP2 SUB SWAP1 RETURN JUMPDEST PUSH2 0x12A PUSH2 0x401 JUMP JUMPDEST PUSH1 0x40 MLOAD PUSH2 0x137 SWAP2 SWAP1 PUSH2 0x1149 JUMP JUMPDEST PUSH1 0x40 MLOAD DUP1 SWAP2 SUB SWAP1 RETURN JUMPDEST PUSH2 0x15A PUSH1 0x4 DUP1 CALLDATASIZE SUB DUP2 ADD SWAP1 PUSH2 0x155 SWAP2 SWAP1 PUSH2 0xEB0 JUMP JUMPDEST PUSH2 0x407 JUMP JUMPDEST PUSH1 0x40 MLOAD PUSH2 0x167 SWAP2 SWAP1 PUSH2 0x108C JUMP JUMPDEST PUSH1 0x40 MLOAD DUP1 SWAP2 SUB SWAP1 RETURN JUMPDEST PUSH2 0x178 PUSH2 0x68D JUMP JUMPDEST PUSH1 0x40 MLOAD PUSH2 0x185 SWAP2 SWAP1 PUSH2 0x1164 JUMP JUMPDEST PUSH1 0x40 MLOAD DUP1 SWAP2 SUB SWAP1 RETURN JUMPDEST PUSH2 0x1A8 PUSH1 0x4 DUP1 CALLDATASIZE SUB DUP2 ADD SWAP1 PUSH2 0x1A3 SWAP2 SWAP1 PUSH2 0xF03 JUMP JUMPDEST PUSH2 0x6A0 JUMP JUMPDEST PUSH1 0x40 MLOAD PUSH2 0x1B5 SWAP2 SWAP1 PUSH2 0x108C JUMP JUMPDEST PUSH1 0x40 MLOAD DUP1 SWAP2 SUB SWAP1 RETURN JUMPDEST PUSH2 0x1D8 PUSH1 0x4 DUP1 CALLDATASIZE SUB DUP2 ADD SWAP1 PUSH2 0x1D3 SWAP2 SWAP1 PUSH2 0xF43 JUMP JUMPDEST PUSH2 0x849 JUMP JUMPDEST PUSH1 0x40 MLOAD PUSH2 0x1E5 SWAP2 SWAP1 PUSH2 0x108C JUMP JUMPDEST PUSH1 0x40 MLOAD DUP1 SWAP2 SUB SWAP1 RETURN JUMPDEST PUSH2 0x1F6 PUSH2 0xA46 JUMP JUMPDEST PUSH1 0x40 MLOAD PUSH2 0x203 SWAP2 SWAP1 PUSH2 0x1071 JUMP JUMPDEST PUSH1 0x40 MLOAD DUP1 SWAP2 SUB SWAP1 RETURN JUMPDEST PUSH2 0x214 PUSH2 0xA6A JUMP JUMPDEST PUSH1 0x40 MLOAD PUSH2 0x221 SWAP2 SWAP1 PUSH2 0x10A7 JUMP JUMPDEST PUSH1 0x40 MLOAD DUP1 SWAP2 SUB SWAP1 RETURN JUMPDEST PUSH2 0x244 PUSH1 0x4 DUP1 CALLDATASIZE SUB DUP2 ADD SWAP1 PUSH2 0x23F SWAP2 SWAP1 PUSH2 0xF03 JUMP JUMPDEST PUSH2 0xAA3 JUMP JUMPDEST PUSH1 0x40 MLOAD PUSH2 0x251 SWAP2 SWAP1 PUSH2 0x108C JUMP JUMPDEST PUSH1 0x40 MLOAD DUP1 SWAP2 SUB SWAP1 RETURN JUMPDEST PUSH2 0x274 PUSH1 0x4 DUP1 CALLDATASIZE SUB DUP2 ADD SWAP1 PUSH2 0x26F SWAP2 SWAP1 PUSH2 0xE43 JUMP JUMPDEST PUSH2 0xCB1 JUMP JUMPDEST PUSH1 0x40 MLOAD PUSH2 0x281 SWAP2 SWAP1 PUSH2 0x1149 JUMP JUMPDEST PUSH1 0x40 MLOAD DUP1 SWAP2 SUB SWAP1 RETURN JUMPDEST PUSH2 0x2A4 PUSH1 0x4 DUP1 CALLDATASIZE SUB DUP2 ADD SWAP1 PUSH2 0x29F SWAP2 SWAP1 PUSH2 0xE70 JUMP JUMPDEST PUSH2 0xCC9 JUMP JUMPDEST PUSH1 0x40 MLOAD PUSH2 0x2B1 SWAP2 SWAP1 PUSH2 0x1149 JUMP JUMPDEST PUSH1 0x40 MLOAD DUP1 SWAP2 SUB SWAP1 RETURN JUMPDEST PUSH2 0x2D4 PUSH1 0x4 DUP1 CALLDATASIZE SUB DUP2 ADD SWAP1 PUSH2 0x2CF SWAP2 SWAP1 PUSH2 0xE43 JUMP JUMPDEST PUSH2 0xCEE JUMP JUMPDEST STOP JUMPDEST PUSH1 0x40 MLOAD DUP1 PUSH1 0x40 ADD PUSH1 0x40 MSTORE DUP1 PUSH1 0xD DUP2 MSTORE PUSH1 0x20 ADD PUSH32 0x537175697272656C546F6B656E00000000000000000000000000000000000000 DUP2 MSTORE POP DUP2 JUMP JUMPDEST PUSH1 0x0 DUP2 PUSH1 0x3 PUSH1 0x0 CALLER PUSH20 0xFFFFFFFFFFFFFFFFFFFFFFFFFFFFFFFFFFFFFFFF AND PUSH20 0xFFFFFFFFFFFFFFFFFFFFFFFFFFFFFFFFFFFFFFFF AND DUP2 MSTORE PUSH1 0x20 ADD SWAP1 DUP2 MSTORE PUSH1 0x20 ADD PUSH1 0x0 KECCAK256 PUSH1 0x0 DUP6 PUSH20 0xFFFFFFFFFFFFFFFFFFFFFFFFFFFFFFFFFFFFFFFF AND PUSH20 0xFFFFFFFFFFFFFFFFFFFFFFFFFFFFFFFFFFFFFFFF AND DUP2 MSTORE PUSH1 0x20 ADD SWAP1 DUP2 MSTORE PUSH1 0x20 ADD PUSH1 0x0 KECCAK256 DUP2 SWAP1 SSTORE POP DUP3 PUSH20 0xFFFFFFFFFFFFFFFFFFFFFFFFFFFFFFFFFFFFFFFF AND CALLER PUSH20 0xFFFFFFFFFFFFFFFFFFFFFFFFFFFFFFFFFFFFFFFF AND PUSH32 0x8C5BE1E5EBEC7D5BD14F71427D1E84F3DD0314C0F7B2291E5B200AC8C7C3B925 DUP5 PUSH1 0x40 MLOAD PUSH2 0x3EF SWAP2 SWAP1 PUSH2 0x1149 JUMP JUMPDEST PUSH1 0x40 MLOAD DUP1 SWAP2 SUB SWAP1 LOG3 PUSH1 0x1 SWAP1 POP SWAP3 SWAP2 POP POP JUMP JUMPDEST PUSH1 0x1 SLOAD DUP2 JUMP JUMPDEST PUSH1 0x0 DUP2 PUSH1 0x2 PUSH1 0x0 DUP7 PUSH20 0xFFFFFFFFFFFFFFFFFFFFFFFFFFFFFFFFFFFFFFFF AND PUSH20 0xFFFFFFFFFFFFFFFFFFFFFFFFFFFFFFFFFFFFFFFF AND DUP2 MSTORE PUSH1 0x20 ADD SWAP1 DUP2 MSTORE PUSH1 0x20 ADD PUSH1 0x0 KECCAK256 SLOAD LT ISZERO PUSH2 0x455 JUMPI PUSH1 0x0 DUP1 REVERT JUMPDEST DUP2 PUSH1 0x3 PUSH1 0x0 DUP7 PUSH20 0xFFFFFFFFFFFFFFFFFFFFFFFFFFFFFFFFFFFFFFFF AND PUSH20 0xFFFFFFFFFFFFFFFFFFFFFFFFFFFFFFFFFFFFFFFF AND DUP2 MSTORE PUSH1 0x20 ADD SWAP1 DUP2 MSTORE PUSH1 0x20 ADD PUSH1 0x0 KECCAK256 PUSH1 0x0 CALLER PUSH20 0xFFFFFFFFFFFFFFFFFFFFFFFFFFFFFFFFFFFFFFFF AND PUSH20 0xFFFFFFFFFFFFFFFFFFFFFFFFFFFFFFFFFFFFFFFF AND DUP2 MSTORE PUSH1 0x20 ADD SWAP1 DUP2 MSTORE PUSH1 0x20 ADD PUSH1 0x0 KECCAK256 SLOAD LT ISZERO PUSH2 0x4DE JUMPI PUSH1 0x0 DUP1 REVERT JUMPDEST DUP2 PUSH1 0x3 PUSH1 0x0 DUP7 PUSH20 0xFFFFFFFFFFFFFFFFFFFFFFFFFFFFFFFFFFFFFFFF AND PUSH20 0xFFFFFFFFFFFFFFFFFFFFFFFFFFFFFFFFFFFFFFFF AND DUP2 MSTORE PUSH1 0x20 ADD SWAP1 DUP2 MSTORE PUSH1 0x20 ADD PUSH1 0x0 KECCAK256 PUSH1 0x0 CALLER PUSH20 0xFFFFFFFFFFFFFFFFFFFFFFFFFFFFFFFFFFFFFFFF AND PUSH20 0xFFFFFFFFFFFFFFFFFFFFFFFFFFFFFFFFFFFFFFFF AND DUP2 MSTORE PUSH1 0x20 ADD SWAP1 DUP2 MSTORE PUSH1 0x20 ADD PUSH1 0x0 KECCAK256 PUSH1 0x0 DUP3 DUP3 SLOAD PUSH2 0x56A SWAP2 SWAP1 PUSH2 0x11F1 JUMP JUMPDEST SWAP3 POP POP DUP2 SWAP1 SSTORE POP DUP2 PUSH1 0x2 PUSH1 0x0 DUP7 PUSH20 0xFFFFFFFFFFFFFFFFFFFFFFFFFFFFFFFFFFFFFFFF AND PUSH20 0xFFFFFFFFFFFFFFFFFFFFFFFFFFFFFFFFFFFFFFFF AND DUP2 MSTORE PUSH1 0x20 ADD SWAP1 DUP2 MSTORE PUSH1 0x20 ADD PUSH1 0x0 KECCAK256 PUSH1 0x0 DUP3 DUP3 SLOAD PUSH2 0x5C0 SWAP2 SWAP1 PUSH2 0x11F1 JUMP JUMPDEST SWAP3 POP POP DUP2 SWAP1 SSTORE POP DUP2 PUSH1 0x2 PUSH1 0x0 DUP6 PUSH20 0xFFFFFFFFFFFFFFFFFFFFFFFFFFFFFFFFFFFFFFFF AND PUSH20 0xFFFFFFFFFFFFFFFFFFFFFFFFFFFFFFFFFFFFFFFF AND DUP2 MSTORE PUSH1 0x20 ADD SWAP1 DUP2 MSTORE PUSH1 0x20 ADD PUSH1 0x0 KECCAK256 PUSH1 0x0 DUP3 DUP3 SLOAD PUSH2 0x616 SWAP2 SWAP1 PUSH2 0x119B JUMP JUMPDEST SWAP3 POP POP DUP2 SWAP1 SSTORE POP DUP3 PUSH20 0xFFFFFFFFFFFFFFFFFFFFFFFFFFFFFFFFFFFFFFFF AND CALLER PUSH20 0xFFFFFFFFFFFFFFFFFFFFFFFFFFFFFFFFFFFFFFFF AND PUSH32 0xDDF252AD1BE2C89B69C2B068FC378DAA952BA7F163C4A11628F55A4DF523B3EF DUP5 PUSH1 0x40 MLOAD PUSH2 0x67A SWAP2 SWAP1 PUSH2 0x1149 JUMP JUMPDEST PUSH1 0x40 MLOAD DUP1 SWAP2 SUB SWAP1 LOG3 PUSH1 0x1 SWAP1 POP SWAP4 SWAP3 POP POP POP JUMP JUMPDEST PUSH1 0x0 PUSH1 0x14 SWAP1 SLOAD SWAP1 PUSH2 0x100 EXP SWAP1 DIV PUSH1 0xFF AND DUP2 JUMP JUMPDEST PUSH1 0x0 DUP1 PUSH1 0x0 SWAP1 SLOAD SWAP1 PUSH2 0x100 EXP SWAP1 DIV PUSH20 0xFFFFFFFFFFFFFFFFFFFFFFFFFFFFFFFFFFFFFFFF AND PUSH20 0xFFFFFFFFFFFFFFFFFFFFFFFFFFFFFFFFFFFFFFFF AND CALLER PUSH20 0xFFFFFFFFFFFFFFFFFFFFFFFFFFFFFFFFFFFFFFFF AND EQ PUSH2 0x731 JUMPI PUSH1 0x40 MLOAD PUSH32 0x8C379A000000000000000000000000000000000000000000000000000000000 DUP2 MSTORE PUSH1 0x4 ADD PUSH2 0x728 SWAP1 PUSH2 0x1109 JUMP JUMPDEST PUSH1 0x40 MLOAD DUP1 SWAP2 SUB SWAP1 REVERT JUMPDEST PUSH1 0x0 PUSH20 0xFFFFFFFFFFFFFFFFFFFFFFFFFFFFFFFFFFFFFFFF AND DUP4 PUSH20 0xFFFFFFFFFFFFFFFFFFFFFFFFFFFFFFFFFFFFFFFF AND EQ ISZERO PUSH2 0x76B JUMPI PUSH1 0x0 DUP1 REVERT JUMPDEST DUP2 PUSH1 0x1 PUSH1 0x0 DUP3 DUP3 SLOAD PUSH2 0x77D SWAP2 SWAP1 PUSH2 0x119B JUMP JUMPDEST SWAP3 POP POP DUP2 SWAP1 SSTORE POP DUP2 PUSH1 0x2 PUSH1 0x0 DUP6 PUSH20 0xFFFFFFFFFFFFFFFFFFFFFFFFFFFFFFFFFFFFFFFF AND PUSH20 0xFFFFFFFFFFFFFFFFFFFFFFFFFFFFFFFFFFFFFFFF AND DUP2 MSTORE PUSH1 0x20 ADD SWAP1 DUP2 MSTORE PUSH1 0x20 ADD PUSH1 0x0 KECCAK256 PUSH1 0x0 DUP3 DUP3 SLOAD PUSH2 0x7D3 SWAP2 SWAP1 PUSH2 0x119B JUMP JUMPDEST SWAP3 POP POP DUP2 SWAP1 SSTORE POP DUP3 PUSH20 0xFFFFFFFFFFFFFFFFFFFFFFFFFFFFFFFFFFFFFFFF AND CALLER PUSH20 0xFFFFFFFFFFFFFFFFFFFFFFFFFFFFFFFFFFFFFFFF AND PUSH32 0xDDF252AD1BE2C89B69C2B068FC378DAA952BA7F163C4A11628F55A4DF523B3EF DUP5 PUSH1 0x40 MLOAD PUSH2 0x837 SWAP2 SWAP1 PUSH2 0x1149 JUMP JUMPDEST PUSH1 0x40 MLOAD DUP1 SWAP2 SUB SWAP1 LOG3 PUSH1 0x1 SWAP1 POP SWAP3 SWAP2 POP POP JUMP JUMPDEST PUSH1 0x0 DUP1 PUSH1 0x0 SWAP1 SLOAD SWAP1 PUSH2 0x100 EXP SWAP1 DIV PUSH20 0xFFFFFFFFFFFFFFFFFFFFFFFFFFFFFFFFFFFFFFFF AND PUSH20 0xFFFFFFFFFFFFFFFFFFFFFFFFFFFFFFFFFFFFFFFF AND CALLER PUSH20 0xFFFFFFFFFFFFFFFFFFFFFFFFFFFFFFFFFFFFFFFF AND EQ PUSH2 0x8DA JUMPI PUSH1 0x40 MLOAD PUSH32 0x8C379A000000000000000000000000000000000000000000000000000000000 DUP2 MSTORE PUSH1 0x4 ADD PUSH2 0x8D1 SWAP1 PUSH2 0x1109 JUMP JUMPDEST PUSH1 0x40 MLOAD DUP1 SWAP2 SUB SWAP1 REVERT JUMPDEST PUSH1 0x0 DUP1 SLOAD SWAP1 PUSH2 0x100 EXP SWAP1 DIV PUSH20 0xFFFFFFFFFFFFFFFFFFFFFFFFFFFFFFFFFFFFFFFF AND PUSH20 0xFFFFFFFFFFFFFFFFFFFFFFFFFFFFFFFFFFFFFFFF AND CALLER PUSH20 0xFFFFFFFFFFFFFFFFFFFFFFFFFFFFFFFFFFFFFFFF AND EQ PUSH2 0x968 JUMPI PUSH1 0x40 MLOAD PUSH32 0x8C379A000000000000000000000000000000000000000000000000000000000 DUP2 MSTORE PUSH1 0x4 ADD PUSH2 0x95F SWAP1 PUSH2 0x10C9 JUMP JUMPDEST PUSH1 0x40 MLOAD DUP1 SWAP2 SUB SWAP1 REVERT JUMPDEST DUP2 PUSH1 0x1 PUSH1 0x0 DUP3 DUP3 SLOAD PUSH2 0x97A SWAP2 SWAP1 PUSH2 0x11F1 JUMP JUMPDEST SWAP3 POP POP DUP2 SWAP1 SSTORE POP DUP2 PUSH1 0x2 PUSH1 0x0 CALLER PUSH20 0xFFFFFFFFFFFFFFFFFFFFFFFFFFFFFFFFFFFFFFFF AND PUSH20 0xFFFFFFFFFFFFFFFFFFFFFFFFFFFFFFFFFFFFFFFF AND DUP2 MSTORE PUSH1 0x20 ADD SWAP1 DUP2 MSTORE PUSH1 0x20 ADD PUSH1 0x0 KECCAK256 PUSH1 0x0 DUP3 DUP3 SLOAD PUSH2 0x9D0 SWAP2 SWAP1 PUSH2 0x11F1 JUMP JUMPDEST SWAP3 POP POP DUP2 SWAP1 SSTORE POP PUSH1 0x0 PUSH20 0xFFFFFFFFFFFFFFFFFFFFFFFFFFFFFFFFFFFFFFFF AND CALLER PUSH20 0xFFFFFFFFFFFFFFFFFFFFFFFFFFFFFFFFFFFFFFFF AND PUSH32 0xDDF252AD1BE2C89B69C2B068FC378DAA952BA7F163C4A11628F55A4DF523B3EF DUP5 PUSH1 0x40 MLOAD PUSH2 0xA35 SWAP2 SWAP1 PUSH2 0x1149 JUMP JUMPDEST PUSH1 0x40 MLOAD DUP1 SWAP2 SUB SWAP1 LOG3 PUSH1 0x1 SWAP1 POP SWAP2 SWAP1 POP JUMP JUMPDEST PUSH1 0x0 DUP1 SLOAD SWAP1 PUSH2 0x100 EXP SWAP1 DIV PUSH20 0xFFFFFFFFFFFFFFFFFFFFFFFFFFFFFFFFFFFFFFFF AND DUP2 JUMP JUMPDEST PUSH1 0x40 MLOAD DUP1 PUSH1 0x40 ADD PUSH1 0x40 MSTORE DUP1 PUSH1 0x3 DUP2 MSTORE PUSH1 0x20 ADD PUSH32 0x5351540000000000000000000000000000000000000000000000000000000000 DUP2 MSTORE POP DUP2 JUMP JUMPDEST PUSH1 0x0 DUP1 PUSH20 0xFFFFFFFFFFFFFFFFFFFFFFFFFFFFFFFFFFFFFFFF AND DUP4 PUSH20 0xFFFFFFFFFFFFFFFFFFFFFFFFFFFFFFFFFFFFFFFF AND EQ ISZERO PUSH2 0xB14 JUMPI PUSH1 0x40 MLOAD PUSH32 0x8C379A000000000000000000000000000000000000000000000000000000000 DUP2 MSTORE PUSH1 0x4 ADD PUSH2 0xB0B SWAP1 PUSH2 0x1129 JUMP JUMPDEST PUSH1 0x40 MLOAD DUP1 SWAP2 SUB SWAP1 REVERT JUMPDEST DUP2 PUSH1 0x2 PUSH1 0x0 CALLER PUSH20 0xFFFFFFFFFFFFFFFFFFFFFFFFFFFFFFFFFFFFFFFF AND PUSH20 0xFFFFFFFFFFFFFFFFFFFFFFFFFFFFFFFFFFFFFFFF AND DUP2 MSTORE PUSH1 0x20 ADD SWAP1 DUP2 MSTORE PUSH1 0x20 ADD PUSH1 0x0 KECCAK256 SLOAD LT ISZERO PUSH2 0xB96 JUMPI PUSH1 0x40 MLOAD PUSH32 0x8C379A000000000000000000000000000000000000000000000000000000000 DUP2 MSTORE PUSH1 0x4 ADD PUSH2 0xB8D SWAP1 PUSH2 0x10E9 JUMP JUMPDEST PUSH1 0x40 MLOAD DUP1 SWAP2 SUB SWAP1 REVERT JUMPDEST DUP2 PUSH1 0x2 PUSH1 0x0 CALLER PUSH20 0xFFFFFFFFFFFFFFFFFFFFFFFFFFFFFFFFFFFFFFFF AND PUSH20 0xFFFFFFFFFFFFFFFFFFFFFFFFFFFFFFFFFFFFFFFF AND DUP2 MSTORE PUSH1 0x20 ADD SWAP1 DUP2 MSTORE PUSH1 0x20 ADD PUSH1 0x0 KECCAK256 PUSH1 0x0 DUP3 DUP3 SLOAD PUSH2 0xBE5 SWAP2 SWAP1 PUSH2 0x11F1 JUMP JUMPDEST SWAP3 POP POP DUP2 SWAP1 SSTORE POP DUP2 PUSH1 0x2 PUSH1 0x0 DUP6 PUSH20 0xFFFFFFFFFFFFFFFFFFFFFFFFFFFFFFFFFFFFFFFF AND PUSH20 0xFFFFFFFFFFFFFFFFFFFFFFFFFFFFFFFFFFFFFFFF AND DUP2 MSTORE PUSH1 0x20 ADD SWAP1 DUP2 MSTORE PUSH1 0x20 ADD PUSH1 0x0 KECCAK256 PUSH1 0x0 DUP3 DUP3 SLOAD PUSH2 0xC3B SWAP2 SWAP1 PUSH2 0x119B JUMP JUMPDEST SWAP3 POP POP DUP2 SWAP1 SSTORE POP DUP3 PUSH20 0xFFFFFFFFFFFFFFFFFFFFFFFFFFFFFFFFFFFFFFFF AND CALLER PUSH20 0xFFFFFFFFFFFFFFFFFFFFFFFFFFFFFFFFFFFFFFFF AND PUSH32 0xDDF252AD1BE2C89B69C2B068FC378DAA952BA7F163C4A11628F55A4DF523B3EF DUP5 PUSH1 0x40 MLOAD PUSH2 0xC9F SWAP2 SWAP1 PUSH2 0x1149 JUMP JUMPDEST PUSH1 0x40 MLOAD DUP1 SWAP2 SUB SWAP1 LOG3 PUSH1 0x1 SWAP1 POP SWAP3 SWAP2 POP POP JUMP JUMPDEST PUSH1 0x2 PUSH1 0x20 MSTORE DUP1 PUSH1 0x0 MSTORE PUSH1 0x40 PUSH1 0x0 KECCAK256 PUSH1 0x0 SWAP2 POP SWAP1 POP SLOAD DUP2 JUMP JUMPDEST PUSH1 0x3 PUSH1 0x20 MSTORE DUP2 PUSH1 0x0 MSTORE PUSH1 0x40 PUSH1 0x0 KECCAK256 PUSH1 0x20 MSTORE DUP1 PUSH1 0x0 MSTORE PUSH1 0x40 PUSH1 0x0 KECCAK256 PUSH1 0x0 SWAP2 POP SWAP2 POP POP SLOAD DUP2 JUMP JUMPDEST PUSH1 0x0 DUP1 SLOAD SWAP1 PUSH2 0x100 EXP SWAP1 DIV PUSH20 0xFFFFFFFFFFFFFFFFFFFFFFFFFFFFFFFFFFFFFFFF AND PUSH20 0xFFFFFFFFFFFFFFFFFFFFFFFFFFFFFFFFFFFFFFFF AND CALLER PUSH20 0xFFFFFFFFFFFFFFFFFFFFFFFFFFFFFFFFFFFFFFFF AND EQ PUSH2 0xD7C JUMPI PUSH1 0x40 MLOAD PUSH32 0x8C379A000000000000000000000000000000000000000000000000000000000 DUP2 MSTORE PUSH1 0x4 ADD PUSH2 0xD73 SWAP1 PUSH2 0x1109 JUMP JUMPDEST PUSH1 0x40 MLOAD DUP1 SWAP2 SUB SWAP1 REVERT JUMPDEST DUP1 PUSH1 0x0 DUP1 PUSH2 0x100 EXP DUP2 SLOAD DUP2 PUSH20 0xFFFFFFFFFFFFFFFFFFFFFFFFFFFFFFFFFFFFFFFF MUL NOT AND SWAP1 DUP4 PUSH20 0xFFFFFFFFFFFFFFFFFFFFFFFFFFFFFFFFFFFFFFFF AND MUL OR SWAP1 SSTORE POP DUP1 PUSH20 0xFFFFFFFFFFFFFFFFFFFFFFFFFFFFFFFFFFFFFFFF AND CALLER PUSH20 0xFFFFFFFFFFFFFFFFFFFFFFFFFFFFFFFFFFFFFFFF AND PUSH32 0x342827C97908E5E2F71151C08502A66D44B6F758E3AC2F1DE95F02EB95F0A735 PUSH1 0x40 MLOAD PUSH1 0x40 MLOAD DUP1 SWAP2 SUB SWAP1 LOG3 POP JUMP JUMPDEST PUSH1 0x0 DUP2 CALLDATALOAD SWAP1 POP PUSH2 0xE28 DUP2 PUSH2 0x1396 JUMP JUMPDEST SWAP3 SWAP2 POP POP JUMP JUMPDEST PUSH1 0x0 DUP2 CALLDATALOAD SWAP1 POP PUSH2 0xE3D DUP2 PUSH2 0x13AD JUMP JUMPDEST SWAP3 SWAP2 POP POP JUMP JUMPDEST PUSH1 0x0 PUSH1 0x20 DUP3 DUP5 SUB SLT ISZERO PUSH2 0xE59 JUMPI PUSH2 0xE58 PUSH2 0x12DC JUMP JUMPDEST JUMPDEST PUSH1 0x0 PUSH2 0xE67 DUP5 DUP3 DUP6 ADD PUSH2 0xE19 JUMP JUMPDEST SWAP2 POP POP SWAP3 SWAP2 POP POP JUMP JUMPDEST PUSH1 0x0 DUP1 PUSH1 0x40 DUP4 DUP6 SUB SLT ISZERO PUSH2 0xE87 JUMPI PUSH2 0xE86 PUSH2 0x12DC JUMP JUMPDEST JUMPDEST PUSH1 0x0 PUSH2 0xE95 DUP6 DUP3 DUP7 ADD PUSH2 0xE19 JUMP JUMPDEST SWAP3 POP POP PUSH1 0x20 PUSH2 0xEA6 DUP6 DUP3 DUP7 ADD PUSH2 0xE19 JUMP JUMPDEST SWAP2 POP POP SWAP3 POP SWAP3 SWAP1 POP JUMP JUMPDEST PUSH1 0x0 DUP1 PUSH1 0x0 PUSH1 0x60 DUP5 DUP7 SUB SLT ISZERO PUSH2 0xEC9 JUMPI PUSH2 0xEC8 PUSH2 0x12DC JUMP JUMPDEST JUMPDEST PUSH1 0x0 PUSH2 0xED7 DUP7 DUP3 DUP8 ADD PUSH2 0xE19 JUMP JUMPDEST SWAP4 POP POP PUSH1 0x20 PUSH2 0xEE8 DUP7 DUP3 DUP8 ADD PUSH2 0xE19 JUMP JUMPDEST SWAP3 POP POP PUSH1 0x40 PUSH2 0xEF9 DUP7 DUP3 DUP8 ADD PUSH2 0xE2E JUMP JUMPDEST SWAP2 POP POP SWAP3 POP SWAP3 POP SWAP3 JUMP JUMPDEST PUSH1 0x0 DUP1 PUSH1 0x40 DUP4 DUP6 SUB SLT ISZERO PUSH2 0xF1A JUMPI PUSH2 0xF19 PUSH2 0x12DC JUMP JUMPDEST JUMPDEST PUSH1 0x0 PUSH2 0xF28 DUP6 DUP3 DUP7 ADD PUSH2 0xE19 JUMP JUMPDEST SWAP3 POP POP PUSH1 0x20 PUSH2 0xF39 DUP6 DUP3 DUP7 ADD PUSH2 0xE2E JUMP JUMPDEST SWAP2 POP POP SWAP3 POP SWAP3 SWAP1 POP JUMP JUMPDEST PUSH1 0x0 PUSH1 0x20 DUP3 DUP5 SUB SLT ISZERO PUSH2 0xF59 JUMPI PUSH2 0xF58 PUSH2 0x12DC JUMP JUMPDEST JUMPDEST PUSH1 0x0 PUSH2 0xF67 DUP5 DUP3 DUP6 ADD PUSH2 0xE2E JUMP JUMPDEST SWAP2 POP POP SWAP3 SWAP2 POP POP JUMP JUMPDEST PUSH2 0xF79 DUP2 PUSH2 0x1225 JUMP JUMPDEST DUP3 MSTORE POP POP JUMP JUMPDEST PUSH2 0xF88 DUP2 PUSH2 0x1237 JUMP JUMPDEST DUP3 MSTORE POP POP JUMP JUMPDEST PUSH1 0x0 PUSH2 0xF99 DUP3 PUSH2 0x117F JUMP JUMPDEST PUSH2 0xFA3 DUP2 DUP6 PUSH2 0x118A JUMP JUMPDEST SWAP4 POP PUSH2 0xFB3 DUP2 DUP6 PUSH1 0x20 DUP7 ADD PUSH2 0x127A JUMP JUMPDEST PUSH2 0xFBC DUP2 PUSH2 0x12E1 JUMP JUMPDEST DUP5 ADD SWAP2 POP POP SWAP3 SWAP2 POP POP JUMP JUMPDEST PUSH1 0x0 PUSH2 0xFD4 PUSH1 0x19 DUP4 PUSH2 0x118A JUMP JUMPDEST SWAP2 POP PUSH2 0xFDF DUP3 PUSH2 0x12F2 JUMP JUMPDEST PUSH1 0x20 DUP3 ADD SWAP1 POP SWAP2 SWAP1 POP JUMP JUMPDEST PUSH1 0x0 PUSH2 0xFF7 PUSH1 0x1E DUP4 PUSH2 0x118A JUMP JUMPDEST SWAP2 POP PUSH2 0x1002 DUP3 PUSH2 0x131B JUMP JUMPDEST PUSH1 0x20 DUP3 ADD SWAP1 POP SWAP2 SWAP1 POP JUMP JUMPDEST PUSH1 0x0 PUSH2 0x101A PUSH1 0x15 DUP4 PUSH2 0x118A JUMP JUMPDEST SWAP2 POP PUSH2 0x1025 DUP3 PUSH2 0x1344 JUMP JUMPDEST PUSH1 0x20 DUP3 ADD SWAP1 POP SWAP2 SWAP1 POP JUMP JUMPDEST PUSH1 0x0 PUSH2 0x103D PUSH1 0x17 DUP4 PUSH2 0x118A JUMP JUMPDEST SWAP2 POP PUSH2 0x1048 DUP3 PUSH2 0x136D JUMP JUMPDEST PUSH1 0x20 DUP3 ADD SWAP1 POP SWAP2 SWAP1 POP JUMP JUMPDEST PUSH2 0x105C DUP2 PUSH2 0x1263 JUMP JUMPDEST DUP3 MSTORE POP POP JUMP JUMPDEST PUSH2 0x106B DUP2 PUSH2 0x126D JUMP JUMPDEST DUP3 MSTORE POP POP JUMP JUMPDEST PUSH1 0x0 PUSH1 0x20 DUP3 ADD SWAP1 POP PUSH2 0x1086 PUSH1 0x0 DUP4 ADD DUP5 PUSH2 0xF70 JUMP JUMPDEST SWAP3 SWAP2 POP POP JUMP JUMPDEST PUSH1 0x0 PUSH1 0x20 DUP3 ADD SWAP1 POP PUSH2 0x10A1 PUSH1 0x0 DUP4 ADD DUP5 PUSH2 0xF7F JUMP JUMPDEST SWAP3 SWAP2 POP POP JUMP JUMPDEST PUSH1 0x0 PUSH1 0x20 DUP3 ADD SWAP1 POP DUP2 DUP2 SUB PUSH1 0x0 DUP4 ADD MSTORE PUSH2 0x10C1 DUP2 DUP5 PUSH2 0xF8E JUMP JUMPDEST SWAP1 POP SWAP3 SWAP2 POP POP JUMP JUMPDEST PUSH1 0x0 PUSH1 0x20 DUP3 ADD SWAP1 POP DUP2 DUP2 SUB PUSH1 0x0 DUP4 ADD MSTORE PUSH2 0x10E2 DUP2 PUSH2 0xFC7 JUMP JUMPDEST SWAP1 POP SWAP2 SWAP1 POP JUMP JUMPDEST PUSH1 0x0 PUSH1 0x20 DUP3 ADD SWAP1 POP DUP2 DUP2 SUB PUSH1 0x0 DUP4 ADD MSTORE PUSH2 0x1102 DUP2 PUSH2 0xFEA JUMP JUMPDEST SWAP1 POP SWAP2 SWAP1 POP JUMP JUMPDEST PUSH1 0x0 PUSH1 0x20 DUP3 ADD SWAP1 POP DUP2 DUP2 SUB PUSH1 0x0 DUP4 ADD MSTORE PUSH2 0x1122 DUP2 PUSH2 0x100D JUMP JUMPDEST SWAP1 POP SWAP2 SWAP1 POP JUMP JUMPDEST PUSH1 0x0 PUSH1 0x20 DUP3 ADD SWAP1 POP DUP2 DUP2 SUB PUSH1 0x0 DUP4 ADD MSTORE PUSH2 0x1142 DUP2 PUSH2 0x1030 JUMP JUMPDEST SWAP1 POP SWAP2 SWAP1 POP JUMP JUMPDEST PUSH1 0x0 PUSH1 0x20 DUP3 ADD SWAP1 POP PUSH2 0x115E PUSH1 0x0 DUP4 ADD DUP5 PUSH2 0x1053 JUMP JUMPDEST SWAP3 SWAP2 POP POP JUMP JUMPDEST PUSH1 0x0 PUSH1 0x20 DUP3 ADD SWAP1 POP PUSH2 0x1179 PUSH1 0x0 DUP4 ADD DUP5 PUSH2 0x1062 JUMP JUMPDEST SWAP3 SWAP2 POP POP JUMP JUMPDEST PUSH1 0x0 DUP2 MLOAD SWAP1 POP SWAP2 SWAP1 POP JUMP JUMPDEST PUSH1 0x0 DUP3 DUP3 MSTORE PUSH1 0x20 DUP3 ADD SWAP1 POP SWAP3 SWAP2 POP POP JUMP JUMPDEST PUSH1 0x0 PUSH2 0x11A6 DUP3 PUSH2 0x1263 JUMP JUMPDEST SWAP2 POP PUSH2 0x11B1 DUP4 PUSH2 0x1263 JUMP JUMPDEST SWAP3 POP DUP3 PUSH32 0xFFFFFFFFFFFFFFFFFFFFFFFFFFFFFFFFFFFFFFFFFFFFFFFFFFFFFFFFFFFFFFFF SUB DUP3 GT ISZERO PUSH2 0x11E6 JUMPI PUSH2 0x11E5 PUSH2 0x12AD JUMP JUMPDEST JUMPDEST DUP3 DUP3 ADD SWAP1 POP SWAP3 SWAP2 POP POP JUMP JUMPDEST PUSH1 0x0 PUSH2 0x11FC DUP3 PUSH2 0x1263 JUMP JUMPDEST SWAP2 POP PUSH2 0x1207 DUP4 PUSH2 0x1263 JUMP JUMPDEST SWAP3 POP DUP3 DUP3 LT ISZERO PUSH2 0x121A JUMPI PUSH2 0x1219 PUSH2 0x12AD JUMP JUMPDEST JUMPDEST DUP3 DUP3 SUB SWAP1 POP SWAP3 SWAP2 POP POP JUMP JUMPDEST PUSH1 0x0 PUSH2 0x1230 DUP3 PUSH2 0x1243 JUMP JUMPDEST SWAP1 POP SWAP2 SWAP1 POP JUMP JUMPDEST PUSH1 0x0 DUP2 ISZERO ISZERO SWAP1 POP SWAP2 SWAP1 POP JUMP JUMPDEST PUSH1 0x0 PUSH20 0xFFFFFFFFFFFFFFFFFFFFFFFFFFFFFFFFFFFFFFFF DUP3 AND SWAP1 POP SWAP2 SWAP1 POP JUMP JUMPDEST PUSH1 0x0 DUP2 SWAP1 POP SWAP2 SWAP1 POP JUMP JUMPDEST PUSH1 0x0 PUSH1 0xFF DUP3 AND SWAP1 POP SWAP2 SWAP1 POP JUMP JUMPDEST PUSH1 0x0 JUMPDEST DUP4 DUP2 LT ISZERO PUSH2 0x1298 JUMPI DUP1 DUP3 ADD MLOAD DUP2 DUP5 ADD MSTORE PUSH1 0x20 DUP2 ADD SWAP1 POP PUSH2 0x127D JUMP JUMPDEST DUP4 DUP2 GT ISZERO PUSH2 0x12A7 JUMPI PUSH1 0x0 DUP5 DUP5 ADD MSTORE JUMPDEST POP POP POP POP JUMP JUMPDEST PUSH32 0x4E487B7100000000000000000000000000000000000000000000000000000000 PUSH1 0x0 MSTORE PUSH1 0x11 PUSH1 0x4 MSTORE PUSH1 0x24 PUSH1 0x0 REVERT JUMPDEST PUSH1 0x0 DUP1 REVERT JUMPDEST PUSH1 0x0 PUSH1 0x1F NOT PUSH1 0x1F DUP4 ADD AND SWAP1 POP SWAP2 SWAP1 POP JUMP JUMPDEST PUSH32 0x596F7520617265206E6F7420616C6C6F7720746F206275726E00000000000000 PUSH1 0x0 DUP3 ADD MSTORE POP JUMP JUMPDEST PUSH32 0x4E6F7420656E6F7567682053515420696E20796F75722062616C616E63650000 PUSH1 0x0 DUP3 ADD MSTORE POP JUMP JUMPDEST PUSH32 0x796F7520617265206E6F7420746865206F776E65720000000000000000000000 PUSH1 0x0 DUP3 ADD MSTORE POP JUMP JUMPDEST PUSH32 0x506C6561736520656E74657220616E2061646472657373000000000000000000 PUSH1 0x0 DUP3 ADD MSTORE POP JUMP JUMPDEST PUSH2 0x139F DUP2 PUSH2 0x1225 JUMP JUMPDEST DUP2 EQ PUSH2 0x13AA JUMPI PUSH1 0x0 DUP1 REVERT JUMPDEST POP JUMP JUMPDEST PUSH2 0x13B6 DUP2 PUSH2 0x1263 JUMP JUMPDEST DUP2 EQ PUSH2 0x13C1 JUMPI PUSH1 0x0 DUP1 REVERT JUMPDEST POP JUMP INVALID LOG2 PUSH5 0x6970667358 0x22 SLT KECCAK256 SHR PUSH14 0x9EA8583834B5D7E6B97555C9FE18 SWAP4 DUP3 JUMPDEST SWAP7 0x2F SWAP2 0xC3 PUSH1 0x47 PUSH8 0xAD3C842634146473 PUSH16 0x6C634300080700330000000000000000 "
				},
				"gasEstimates": {
					"creation": {
						"codeDepositCost": "1022800",
						"executionCost": "infinite",
						"totalCost": "infinite"
					},
					"external": {
						"BalanceOf(address)": "2858",
						"allowance(address,address)": "infinite",
						"approve(address,uint256)": "infinite",
						"burn(uint256)": "infinite",
						"decimals()": "2610",
						"mint(address,uint256)": "infinite",
						"name()": "infinite",
						"owner()": "2556",
						"symbol()": "infinite",
						"totalSupply()": "2474",
						"transfer(address,uint256)": "infinite",
						"transferFrom(address,address,uint256)": "infinite",
						"transferOwnership(address)": "28521"
					}
				},
				"methodIdentifiers": {
					"BalanceOf(address)": "d9967889",
					"allowance(address,address)": "dd62ed3e",
					"approve(address,uint256)": "095ea7b3",
					"burn(uint256)": "42966c68",
					"decimals()": "313ce567",
					"mint(address,uint256)": "40c10f19",
					"name()": "06fdde03",
					"owner()": "8da5cb5b",
					"symbol()": "95d89b41",
					"totalSupply()": "18160ddd",
					"transfer(address,uint256)": "a9059cbb",
					"transferFrom(address,address,uint256)": "23b872dd",
					"transferOwnership(address)": "f2fde38b"
				}
			},
			"userdoc": {
				"kind": "user",
				"methods": {},
				"version": 1
			}
		}
	}
}